{"abi":[{"type":"constructor","inputs":[],"stateMutability":"nonpayable"},{"type":"fallback","stateMutability":"payable"},{"type":"receive","stateMutability":"payable"},{"type":"function","name":"MAX_LEADERBOARD","inputs":[],"outputs":[{"name":"","type":"uint256","internalType":"uint256"}],"stateMutability":"view"},{"type":"function","name":"MIN_GAME_DURATION","inputs":[],"outputs":[{"name":"","type":"uint256","internalType":"uint256"}],"stateMutability":"view"},{"type":"function","name":"SUBMIT_COOLDOWN","inputs":[],"outputs":[{"name":"","type":"uint256","internalType":"uint256"}],"stateMutability":"view"},{"type":"function","name":"UPGRADE_INTERFACE_VERSION","inputs":[],"outputs":[{"name":"","type":"string","internalType":"string"}],"stateMutability":"view"},{"type":"function","name":"activeSession","inputs":[{"name":"","type":"address","internalType":"address"}],"outputs":[{"name":"","type":"bytes32","internalType":"bytes32"}],"stateMutability":"view"},{"type":"function","name":"claimReward","inputs":[{"name":"periodId","type":"uint256","internalType":"uint256"}],"outputs":[],"stateMutability":"nonpayable"},{"type":"function","name":"depositPrize","inputs":[],"outputs":[],"stateMutability":"payable"},{"type":"function","name":"distributeRewards","inputs":[],"outputs":[],"stateMutability":"nonpayable"},{"type":"function","name":"emergencyWithdraw","inputs":[],"outputs":[],"stateMutability":"nonpayable"},{"type":"function","name":"finalizePeriod","inputs":[],"outputs":[],"stateMutability":"nonpayable"},{"type":"function","name":"forceReset","inputs":[],"outputs":[],"stateMutability":"nonpayable"},{"type":"function","name":"getClaimableReward","inputs":[{"name":"periodId","type":"uint256","internalType":"uint256"},{"name":"player","type":"address","internalType":"address"}],"outputs":[{"name":"amount","type":"uint256","internalType":"uint256"},{"name":"rank","type":"uint256","internalType":"uint256"},{"name":"claimed","type":"bool","internalType":"bool"},{"name":"finalized","type":"bool","internalType":"bool"}],"stateMutability":"view"},{"type":"function","name":"getContractBalance","inputs":[],"outputs":[{"name":"","type":"uint256","internalType":"uint256"}],"stateMutability":"view"},{"type":"function","name":"getLatestClaimableReward","inputs":[{"name":"player","type":"address","internalType":"address"}],"outputs":[{"name":"periodId","type":"uint256","internalType":"uint256"},{"name":"amount","type":"uint256","internalType":"uint256"},{"name":"rank","type":"uint256","internalType":"uint256"},{"name":"claimed","type":"bool","internalType":"bool"},{"name":"finalized","type":"bool","internalType":"bool"}],"stateMutability":"view"},{"type":"function","name":"getLeaderboard","inputs":[],"outputs":[{"name":"","type":"tuple[]","internalType":"struct StackBallGame.PlayerScore[]","components":[{"name":"player","type":"address","internalType":"address"},{"name":"score","type":"uint256","internalType":"uint256"},{"name":"rank","type":"uint256","internalType":"uint256"},{"name":"submittedAt","type":"uint256","internalType":"uint256"}]}],"stateMutability":"view"},{"type":"function","name":"getLeaderboardTop3","inputs":[],"outputs":[{"name":"p1","type":"address","internalType":"address"},{"name":"s1","type":"uint256","internalType":"uint256"},{"name":"p2","type":"address","internalType":"address"},{"name":"s2","type":"uint256","internalType":"uint256"},{"name":"p3","type":"address","internalType":"address"},{"name":"s3","type":"uint256","internalType":"uint256"}],"stateMutability":"view"},{"type":"function","name":"getPeriodWinners","inputs":[{"name":"periodId","type":"uint256","internalType":"uint256"}],"outputs":[{"name":"winners","type":"address[3]","internalType":"address[3]"},{"name":"rewards","type":"uint256[3]","internalType":"uint256[3]"},{"name":"claimed","type":"bool[3]","internalType":"bool[3]"},{"name":"finalized","type":"bool","internalType":"bool"},{"name":"finalizedAt","type":"uint256","internalType":"uint256"}],"stateMutability":"view"},{"type":"function","name":"getPlayerStats","inputs":[{"name":"player","type":"address","internalType":"address"}],"outputs":[{"name":"","type":"tuple","internalType":"struct StackBallGame.PlayerStats","components":[{"name":"totalGames","type":"uint256","internalType":"uint256"},{"name":"bestScore","type":"uint256","internalType":"uint256"},{"name":"currentPeriodScore","type":"uint256","internalType":"uint256"},{"name":"currentRank","type":"uint256","internalType":"uint256"},{"name":"hasSubmittedThisPeriod","type":"bool","internalType":"bool"}]}],"stateMutability":"view"},{"type":"function","name":"getPrizes","inputs":[],"outputs":[{"name":"","type":"uint256","internalType":"uint256"},{"name":"","type":"uint256","internalType":"uint256"},{"name":"","type":"uint256","internalType":"uint256"}],"stateMutability":"view"},{"type":"function","name":"getTimeUntilReset","inputs":[],"outputs":[{"name":"","type":"uint256","internalType":"uint256"}],"stateMutability":"view"},{"type":"function","name":"initialize","inputs":[{"name":"owner","type":"address","internalType":"address"}],"outputs":[],"stateMutability":"nonpayable"},{"type":"function","name":"isPeriodExpired","inputs":[],"outputs":[{"name":"","type":"bool","internalType":"bool"}],"stateMutability":"view"},{"type":"function","name":"isPeriodFinalized","inputs":[{"name":"periodId","type":"uint256","internalType":"uint256"}],"outputs":[{"name":"","type":"bool","internalType":"bool"}],"stateMutability":"view"},{"type":"function","name":"lastSubmitTime","inputs":[{"name":"","type":"address","internalType":"address"}],"outputs":[{"name":"","type":"uint256","internalType":"uint256"}],"stateMutability":"view"},{"type":"function","name":"latestFinalizedPeriod","inputs":[],"outputs":[{"name":"","type":"uint256","internalType":"uint256"}],"stateMutability":"view"},{"type":"function","name":"leaderboard","inputs":[{"name":"","type":"uint256","internalType":"uint256"}],"outputs":[{"name":"player","type":"address","internalType":"address"},{"name":"score","type":"uint256","internalType":"uint256"},{"name":"rank","type":"uint256","internalType":"uint256"},{"name":"submittedAt","type":"uint256","internalType":"uint256"}],"stateMutability":"view"},{"type":"function","name":"owner","inputs":[],"outputs":[{"name":"","type":"address","internalType":"address"}],"stateMutability":"view"},{"type":"function","name":"periodDuration","inputs":[],"outputs":[{"name":"","type":"uint256","internalType":"uint256"}],"stateMutability":"view"},{"type":"function","name":"periodNumber","inputs":[],"outputs":[{"name":"","type":"uint256","internalType":"uint256"}],"stateMutability":"view"},{"type":"function","name":"periodStart","inputs":[],"outputs":[{"name":"","type":"uint256","internalType":"uint256"}],"stateMutability":"view"},{"type":"function","name":"playerStats","inputs":[{"name":"","type":"address","internalType":"address"}],"outputs":[{"name":"totalGames","type":"uint256","internalType":"uint256"},{"name":"bestScore","type":"uint256","internalType":"uint256"},{"name":"currentPeriodScore","type":"uint256","internalType":"uint256"},{"name":"currentRank","type":"uint256","internalType":"uint256"},{"name":"hasSubmittedThisPeriod","type":"bool","internalType":"bool"}],"stateMutability":"view"},{"type":"function","name":"playerStatsPeriod","inputs":[{"name":"","type":"address","internalType":"address"}],"outputs":[{"name":"","type":"uint256","internalType":"uint256"}],"stateMutability":"view"},{"type":"function","name":"prize1","inputs":[],"outputs":[{"name":"","type":"uint256","internalType":"uint256"}],"stateMutability":"view"},{"type":"function","name":"prize2","inputs":[],"outputs":[{"name":"","type":"uint256","internalType":"uint256"}],"stateMutability":"view"},{"type":"function","name":"prize3","inputs":[],"outputs":[{"name":"","type":"uint256","internalType":"uint256"}],"stateMutability":"view"},{"type":"function","name":"proxiableUUID","inputs":[],"outputs":[{"name":"","type":"bytes32","internalType":"bytes32"}],"stateMutability":"view"},{"type":"function","name":"renounceOwnership","inputs":[],"outputs":[],"stateMutability":"nonpayable"},{"type":"function","name":"sessions","inputs":[{"name":"","type":"bytes32","internalType":"bytes32"}],"outputs":[{"name":"player","type":"address","internalType":"address"},{"name":"startTime","type":"uint256","internalType":"uint256"},{"name":"isActive","type":"bool","internalType":"bool"},{"name":"isSubmitted","type":"bool","internalType":"bool"}],"stateMutability":"view"},{"type":"function","name":"setPrizes","inputs":[{"name":"_p1","type":"uint256","internalType":"uint256"},{"name":"_p2","type":"uint256","internalType":"uint256"},{"name":"_p3","type":"uint256","internalType":"uint256"}],"outputs":[],"stateMutability":"nonpayable"},{"type":"function","name":"startGame","inputs":[],"outputs":[{"name":"sessionId","type":"bytes32","internalType":"bytes32"}],"stateMutability":"nonpayable"},{"type":"function","name":"submitScore","inputs":[{"name":"totalScore","type":"uint256","internalType":"uint256"},{"name":"gameHash","type":"bytes32","internalType":"bytes32"}],"outputs":[],"stateMutability":"nonpayable"},{"type":"function","name":"transferOwnership","inputs":[{"name":"newOwner","type":"address","internalType":"address"}],"outputs":[],"stateMutability":"nonpayable"},{"type":"function","name":"upgradeToAndCall","inputs":[{"name":"newImplementation","type":"address","internalType":"address"},{"name":"data","type":"bytes","internalType":"bytes"}],"outputs":[],"stateMutability":"payable"},{"type":"function","name":"usedHashes","inputs":[{"name":"","type":"bytes32","internalType":"bytes32"}],"outputs":[{"name":"","type":"bool","internalType":"bool"}],"stateMutability":"view"},{"type":"event","name":"GameStarted","inputs":[{"name":"player","type":"address","indexed":true,"internalType":"address"},{"name":"sessionId","type":"bytes32","indexed":true,"internalType":"bytes32"},{"name":"timestamp","type":"uint256","indexed":false,"internalType":"uint256"}],"anonymous":false},{"type":"event","name":"Initialized","inputs":[{"name":"version","type":"uint64","indexed":false,"internalType":"uint64"}],"anonymous":false},{"type":"event","name":"LeaderboardReset","inputs":[{"name":"periodNumber","type":"uint256","indexed":true,"internalType":"uint256"},{"name":"timestamp","type":"uint256","indexed":false,"internalType":"uint256"}],"anonymous":false},{"type":"event","name":"OwnershipTransferred","inputs":[{"name":"previousOwner","type":"address","indexed":true,"internalType":"address"},{"name":"newOwner","type":"address","indexed":true,"internalType":"address"}],"anonymous":false},{"type":"event","name":"PeriodFinalized","inputs":[{"name":"periodNumber","type":"uint256","indexed":true,"internalType":"uint256"},{"name":"winner1","type":"address","indexed":false,"internalType":"address"},{"name":"winner2","type":"address","indexed":false,"internalType":"address"},{"name":"winner3","type":"address","indexed":false,"internalType":"address"},{"name":"reward1","type":"uint256","indexed":false,"internalType":"uint256"},{"name":"reward2","type":"uint256","indexed":false,"internalType":"uint256"},{"name":"reward3","type":"uint256","indexed":false,"internalType":"uint256"},{"name":"timestamp","type":"uint256","indexed":false,"internalType":"uint256"}],"anonymous":false},{"type":"event","name":"PrizeDeposited","inputs":[{"name":"from","type":"address","indexed":true,"internalType":"address"},{"name":"amount","type":"uint256","indexed":false,"internalType":"uint256"},{"name":"contractBalance","type":"uint256","indexed":false,"internalType":"uint256"}],"anonymous":false},{"type":"event","name":"RewardClaimed","inputs":[{"name":"winner","type":"address","indexed":true,"internalType":"address"},{"name":"periodNumber","type":"uint256","indexed":true,"internalType":"uint256"},{"name":"amount","type":"uint256","indexed":false,"internalType":"uint256"},{"name":"rank","type":"uint256","indexed":false,"internalType":"uint256"},{"name":"timestamp","type":"uint256","indexed":false,"internalType":"uint256"}],"anonymous":false},{"type":"event","name":"RewardsDistributed","inputs":[{"name":"winner1","type":"address","indexed":true,"internalType":"address"},{"name":"winner2","type":"address","indexed":true,"internalType":"address"},{"name":"winner3","type":"address","indexed":true,"internalType":"address"},{"name":"amount1","type":"uint256","indexed":false,"internalType":"uint256"},{"name":"amount2","type":"uint256","indexed":false,"internalType":"uint256"},{"name":"amount3","type":"uint256","indexed":false,"internalType":"uint256"},{"name":"periodNumber","type":"uint256","indexed":false,"internalType":"uint256"}],"anonymous":false},{"type":"event","name":"ScoreSubmitted","inputs":[{"name":"player","type":"address","indexed":true,"internalType":"address"},{"name":"score","type":"uint256","indexed":false,"internalType":"uint256"},{"name":"rank","type":"uint256","indexed":false,"internalType":"uint256"},{"name":"periodNumber","type":"uint256","indexed":false,"internalType":"uint256"},{"name":"timestamp","type":"uint256","indexed":false,"internalType":"uint256"}],"anonymous":false},{"type":"event","name":"Upgraded","inputs":[{"name":"implementation","type":"address","indexed":true,"internalType":"address"}],"anonymous":false},{"type":"error","name":"AddressEmptyCode","inputs":[{"name":"target","type":"address","internalType":"address"}]},{"type":"error","name":"ERC1967InvalidImplementation","inputs":[{"name":"implementation","type":"address","internalType":"address"}]},{"type":"error","name":"ERC1967NonPayable","inputs":[]},{"type":"error","name":"FailedCall","inputs":[]},{"type":"error","name":"InvalidInitialization","inputs":[]},{"type":"error","name":"NotInitializing","inputs":[]},{"type":"error","name":"OwnableInvalidOwner","inputs":[{"name":"owner","type":"address","internalType":"address"}]},{"type":"error","name":"OwnableUnauthorizedAccount","inputs":[{"name":"account","type":"address","internalType":"address"}]},{"type":"error","name":"UUPSUnauthorizedCallContext","inputs":[]},{"type":"error","name":"UUPSUnsupportedProxiableUUID","inputs":[{"name":"slot","type":"bytes32","internalType":"bytes32"}]}],"bytecode":{"object":"0x60a06040523060805234801562000014575f80fd5b506200001f62000025565b620000d9565b7ff0c57e16840df040f15088dc2f81fe391c3923bec73e23a9662efc9c229c6a00805468010000000000000000900460ff1615620000765760405163f92ee8a960e01b815260040160405180910390fd5b80546001600160401b0390811614620000d65780546001600160401b0319166001600160401b0390811782556040519081527fc7f505b2f371ae2175ee4913f4499e1f2633a7b5936321eed1cdaeb6115181d29060200160405180910390a15b50565b608051612f9e620001005f395f8181611a2801528181611a510152611bc50152612f9e5ff3fe608060405260043610610252575f3560e01c80638da5cb5b11610137578063bf368399116100af578063d65ab5f211610076578063d65ab5f21461085b578063db2e21bc1461086f578063def8315a14610883578063ec000bb5146108a2578063eda4e6d6146108d2578063f2fde38b146108e757005b8063bf3683991461073b578063c05b55ac14610784578063c4d66de814610799578063cdafbbb6146107b8578063d48e05a11461082d57005b8063ad3cb1cc116100fe578063ad3cb1cc14610642578063ae169a501461067f578063aef18bf71461069e578063b470aade146106cc578063b595e552146106e0578063b5a15bbf1461070b57005b80638da5cb5b1461056f578063903601771461059b578063913baf5d146105e6578063a98132071461041c578063ab3b55e3146105fb57005b8063618abf12116101ca5780637675a419116101915780637675a4191461045657806379ec0eaf1461046b5780637dbd28321461048a5780638b680cc31461050c5780638b6d4bde146105205780638d39905f1461054457005b8063618abf12146103e65780636d763a6e146103fb5780636f4a2cd01461041c5780636f9fb98a14610430578063715018a61461044257005b8063409f6c6311610219578063409f6c631461032d5780634e083278146103415780634f1ef286146103495780634fd66eae1461035c578063513a39b7146103be57806352d1902d146103d257005b806302802a641461025b57806308523968146102825780630df99ff1146102ad578063115e33ae146102c257806327e39313146102d657005b3661025957005b005b348015610266575f80fd5b5061026f603281565b6040519081526020015b60405180910390f35b34801561028d575f80fd5b5061026f61029c366004612b5f565b600a6020525f908152604090205481565b3480156102b8575f80fd5b5061026f60025481565b3480156102cd575f80fd5b5061026f600a81565b3480156102e1575f80fd5b506102ea610906565b604080516001600160a01b0397881681526020810196909652938616938501939093526060840191909152909216608082015260a081019190915260c001610279565b348015610338575f80fd5b5061026f601e81565b610259610a3e565b610259610357366004612b93565b610b0b565b348015610367575f80fd5b5061037b610376366004612b5f565b610b2a565b60405161027991905f60a0820190508251825260208301516020830152604083015160408301526060830151606083015260808301511515608083015292915050565b3480156103c9575f80fd5b5061026f610bdc565b3480156103dd575f80fd5b5061026f610c0d565b3480156103f1575f80fd5b5061026f60065481565b348015610406575f80fd5b5061040f610c28565b6040516102799190612c4f565b348015610427575f80fd5b50610259610cb0565b34801561043b575f80fd5b504761026f565b34801561044d575f80fd5b50610259610cf2565b348015610461575f80fd5b5061026f60045481565b348015610476575f80fd5b50610259610485366004612cbb565b610d03565b348015610495575f80fd5b506104da6104a4366004612ce4565b60096020525f90815260409020805460018201546002909201546001600160a01b03909116919060ff8082169161010090041684565b604080516001600160a01b03909516855260208501939093529015159183019190915215156060820152608001610279565b348015610517575f80fd5b50610259610d49565b34801561052b575f80fd5b50610534610d89565b6040519015158152602001610279565b34801561054f575f80fd5b5061026f61055e366004612b5f565b600c6020525f908152604090205481565b34801561057a575f80fd5b50610583610d97565b6040516001600160a01b039091168152602001610279565b3480156105a6575f80fd5b506105ba6105b5366004612b5f565b610dc5565b60408051958652602086019490945292840191909152151560608301521515608082015260a001610279565b3480156105f1575f80fd5b5061026f60035481565b348015610606575f80fd5b5061061a610615366004612cfb565b610e04565b6040805194855260208501939093529015159183019190915215156060820152608001610279565b34801561064d575f80fd5b50610672604051806040016040528060058152602001640352e302e360dc1b81525081565b6040516102799190612d25565b34801561068a575f80fd5b50610259610699366004612ce4565b610e24565b3480156106a9575f80fd5b506105346106b8366004612ce4565b600b6020525f908152604090205460ff1681565b3480156106d7575f80fd5b5061026f5f5481565b3480156106eb575f80fd5b5061026f6106fa366004612b5f565b600d6020525f908152604090205481565b348015610716575f80fd5b5061072a610725366004612ce4565b6110bf565b604051610279959493929190612d9b565b348015610746575f80fd5b5061075a610755366004612ce4565b6111cf565b604080516001600160a01b0390951685526020850193909352918301526060820152608001610279565b34801561078f575f80fd5b5061026f60055481565b3480156107a4575f80fd5b506102596107b3366004612b5f565b611211565b3480156107c3575f80fd5b506108036107d2366004612b5f565b60086020525f9081526040902080546001820154600283015460038401546004909401549293919290919060ff1685565b6040805195865260208601949094529284019190915260608301521515608082015260a001610279565b348015610838575f80fd5b50610534610847366004612ce4565b5f908152600e602052604090205460ff1690565b348015610866575f80fd5b5061026f61133d565b34801561087a575f80fd5b506102596114d2565b34801561088e575f80fd5b5061025961089d366004612e1a565b6115b3565b3480156108ad575f80fd5b5060045460055460065460408051938452602084019290925290820152606001610279565b3480156108dd575f80fd5b5061026f60015481565b3480156108f2575f80fd5b50610259610901366004612b5f565b6119e3565b5f805f805f805f6007805490509050600181106109715760075f8154811061093057610930612e3a565b5f9182526020822060049091020154600780546001600160a01b039092169950919061095e5761095e612e3a565b905f5260205f2090600402016001015495505b600281106109d357600760018154811061098d5761098d612e3a565b5f918252602090912060049091020154600780546001600160a01b0390921696509060019081106109c0576109c0612e3a565b905f5260205f2090600402016001015493505b60038110610a355760076002815481106109ef576109ef612e3a565b5f918252602090912060049091020154600780546001600160a01b039092169450906002908110610a2257610a22612e3a565b905f5260205f2090600402016001015491505b50909192939495565b610a46610d97565b6001600160a01b0316336001600160a01b031614610a7f5760405162461bcd60e51b8152600401610a7690612e4e565b60405180910390fd5b5f3411610ace5760405162461bcd60e51b815260206004820152601960248201527f537461636b42616c6c3a206d7573742073656e642043454c4f000000000000006044820152606401610a76565b6040805134815247602082015233917f93e71a765d9dbd78bb81630ff384cea4889a4dd193703dd81f51584e20e7150891015b60405180910390a2565b610b13611a1d565b610b1c82611ac1565b610b268282611af9565b5050565b610b596040518060a001604052805f81526020015f81526020015f81526020015f81526020015f151581525090565b6001600160a01b0382165f818152600860209081526040808320815160a08101835281548152600182015481850152600280830154828501526003830154606083015260049092015460ff16151560808201529054948452600d90925290912054909114610bd6575f604082018190526060820181905260808201525b92915050565b5f805f54600154610bed9190612e90565b9050804210610bfd575f91505090565b610c074282612ea3565b91505090565b5f610c16611bba565b505f80516020612f4983398151915290565b60606007805480602002602001604051908101604052809291908181526020015f905b82821015610ca7575f848152602090819020604080516080810182526004860290920180546001600160a01b03168352600180820154848601526002820154928401929092526003015460608301529083529092019101610c4b565b50505050905090565b610cb8610d97565b6001600160a01b0316336001600160a01b031614610ce85760405162461bcd60e51b8152600401610a7690612e4e565b610cf0611c03565b565b610cfa611ed5565b610cf05f611f07565b610d0b610d97565b6001600160a01b0316336001600160a01b031614610d3b5760405162461bcd60e51b8152600401610a7690612e4e565b600492909255600555600655565b610d51610d97565b6001600160a01b0316336001600160a01b031614610d815760405162461bcd60e51b8152600401610a7690612e4e565b610cf0611f77565b5f610d92611fd0565b905090565b7f9016d09d72d40fdae2fd8ceac6b6234c7706214fd39c1cd1e609a0528c199300546001600160a01b031690565b6003545f808080848103610de657505f935083925082915081905080610dfb565b610df08587611fe8565b929650909450925090505b91939590929450565b5f805f80610e128686611fe8565b93509350935093505b92959194509250565b5f805f80610e328533611fe8565b935093509350935080610e875760405162461bcd60e51b815260206004820152601f60248201527f537461636b42616c6c3a20706572696f64206e6f742066696e616c697a6564006044820152606401610a76565b5f8411610ed65760405162461bcd60e51b815260206004820152601e60248201527f537461636b42616c6c3a206e6f2072657761726420617661696c61626c6500006044820152606401610a76565b8115610f2e5760405162461bcd60e51b815260206004820152602160248201527f537461636b42616c6c3a2072657761726420616c726561647920636c61696d656044820152601960fa1b6064820152608401610a76565b83471015610f7e5760405162461bcd60e51b815260206004820152601f60248201527f537461636b42616c6c3a20696e73756666696369656e742062616c616e6365006044820152606401610a76565b5f858152600e60205260409020600160088201610f9b8287612ea3565b60038110610fab57610fab612e3a565b602091828204019190066101000a81548160ff0219169083151502179055505f336001600160a01b0316866040515f6040518083038185875af1925050503d805f8114611013576040519150601f19603f3d011682016040523d82523d5f602084013e611018565b606091505b50509050806110735760405162461bcd60e51b815260206004820152602160248201527f537461636b42616c6c3a20726577617264207472616e73666572206661696c656044820152601960fa1b6064820152608401610a76565b604080518781526020810187905242818301529051889133917f9e80c048bc588b388047ffc6e8153e7c11aa34312de7ed62e1858ff3a44ddce89181900360600190a350505050505050565b6110c7612adb565b6110cf612adb565b6110d7612adb565b5f848152600e602052604080822080546001820154835160608101909452849360028401926005850192600886019260ff909216918560038282826020028201915b81546001600160a01b0316815260019091019060200180831161111957505060408051606081019182905294995088935060039250905082845b815481526020019060010190808311611153575050604080516060810191829052949850879350600392509050825f855b825461010083900a900460ff16151581526020600192830181810494850194909303909202910180841161118457905050505050509250955095509550955095505091939590929450565b600781815481106111de575f80fd5b5f91825260209091206004909102018054600182015460028301546003909301546001600160a01b039092169350919084565b5f61121a6120db565b805490915060ff600160401b820416159067ffffffffffffffff165f811580156112415750825b90505f8267ffffffffffffffff16600114801561125d5750303b155b90508115801561126b575080155b156112895760405163f92ee8a960e01b815260040160405180910390fd5b845467ffffffffffffffff1916600117855583156112b357845460ff60401b1916600160401b1785555b6112bc86612103565b62093a805f55426001908155600255678ac7230489e80000600455676124fee993bc0000600555674563918244f40000600655831561133557845460ff60401b19168555604051600181527fc7f505b2f371ae2175ee4913f4499e1f2633a7b5936321eed1cdaeb6115181d29060200160405180910390a15b505050505050565b5f611346611fd0565b156113635760405162461bcd60e51b8152600401610a7690612eb6565b61136c33612114565b50335f8181526008602090815260408083205481516bffffffffffffffffffffffff19606087901b1681850152426034820152446054820152607480820192909252825180820390920182526094018252805190830120938352600a90915290205480156113ed575f818152600960205260409020600201805460ff191690555b604080516080810182523380825242602080840191825260018486018181525f606087018181528a825260098552888220975188546001600160a01b0319166001600160a01b039091161788559451928701929092555160029095018054935161ffff1990941695151561ff001916959095176101009315159390930292909217909355908152600a8252828120859055600890915290812080549161149283612f04565b9091555050604051428152829033907f859d3597c1e4f44ea32d4e3690849b94fd0a0a07a15da3f5663ecf3c4cd5b0f09060200160405180910390a35090565b6114da610d97565b6001600160a01b0316336001600160a01b03161461150a5760405162461bcd60e51b8152600401610a7690612e4e565b5f611513610d97565b6001600160a01b0316476040515f6040518083038185875af1925050503d805f811461155a576040519150601f19603f3d011682016040523d82523d5f602084013e61155f565b606091505b50509050806115b05760405162461bcd60e51b815260206004820152601a60248201527f537461636b42616c6c3a207769746864726177206661696c65640000000000006044820152606401610a76565b50565b6115bb611fd0565b156115d85760405162461bcd60e51b8152600401610a7690612eb6565b5f818152600b602052604090205460ff16156116365760405162461bcd60e51b815260206004820152601c60248201527f537461636b42616c6c3a206861736820616c72656164792075736564000000006044820152606401610a76565b335f908152600a6020526040902054806116925760405162461bcd60e51b815260206004820152601c60248201527f537461636b42616c6c3a206e6f206163746976652073657373696f6e000000006044820152606401610a76565b5f81815260096020526040902080546001600160a01b031633146116f85760405162461bcd60e51b815260206004820152601b60248201527f537461636b42616c6c3a206e6f7420796f75722073657373696f6e00000000006044820152606401610a76565b600281015460ff1661174c5760405162461bcd60e51b815260206004820152601d60248201527f537461636b42616c6c3a2073657373696f6e206e6f74206163746976650000006044820152606401610a76565b6002810154610100900460ff16156117a65760405162461bcd60e51b815260206004820152601c60248201527f537461636b42616c6c3a20616c7265616479207375626d6974746564000000006044820152606401610a76565b600a81600101546117b79190612e90565b4210156118065760405162461bcd60e51b815260206004820152601960248201527f537461636b42616c6c3a2067616d6520746f6f2073686f7274000000000000006044820152606401610a76565b335f908152600c6020526040902054158061183b5750335f908152600c602052604090205461183790601e90612e90565b4210155b6118875760405162461bcd60e51b815260206004820152601a60248201527f537461636b42616c6c3a207375626d697420746f6f20736f6f6e0000000000006044820152606401610a76565b5f84116118e05760405162461bcd60e51b815260206004820152602160248201527f537461636b42616c6c3a2073636f7265206d75737420626520706f73697469766044820152606560f81b6064820152608401610a76565b5f838152600b60209081526040808320805460ff1916600190811790915560028501805461ffff1916610100179055338452600a8352818420849055600c835281842042905560089092529091209081015485111561194157600181018590555b61194a33612114565b84816002015f82825461195d9190612e90565b909155505060048101805460ff1916600117905560028101545f9061198390339061217c565b600383018190556002808401549054604080519283526020830184905282015242606082015290915033907f04f4c0f5a4a2f0a08f6e3b4fd6a5abaa7af15961534922311add59aeef2e1d929060800160405180910390a2505050505050565b6119eb611ed5565b6001600160a01b038116611a1457604051631e4fbdf760e01b81525f6004820152602401610a76565b6115b081611f07565b306001600160a01b037f0000000000000000000000000000000000000000000000000000000000000000161480611aa357507f00000000000000000000000000000000000000000000000000000000000000006001600160a01b0316611a975f80516020612f49833981519152546001600160a01b031690565b6001600160a01b031614155b15610cf05760405163703e46dd60e11b815260040160405180910390fd5b611ac9610d97565b6001600160a01b0316336001600160a01b0316146115b05760405162461bcd60e51b8152600401610a7690612e4e565b816001600160a01b03166352d1902d6040518163ffffffff1660e01b8152600401602060405180830381865afa925050508015611b53575060408051601f3d908101601f19168201909252611b5091810190612f1c565b60015b611b7b57604051634c9c8ce360e01b81526001600160a01b0383166004820152602401610a76565b5f80516020612f498339815191528114611bab57604051632a87526960e21b815260048101829052602401610a76565b611bb583836124d5565b505050565b306001600160a01b037f00000000000000000000000000000000000000000000000000000000000000001614610cf05760405163703e46dd60e11b815260040160405180910390fd5b611c0b611fd0565b611c615760405162461bcd60e51b815260206004820152602160248201527f537461636b42616c6c3a20706572696f64206e6f7420796574206578706972656044820152601960fa1b6064820152608401610a76565b6002545f818152600e60205260409020805460ff1615611ccf5760405162461bcd60e51b815260206004820152602360248201527f537461636b42616c6c3a20706572696f6420616c72656164792066696e616c696044820152621e995960ea1b6064820152608401610a76565b6007545f90611cdd9061252a565b905080471015611d2f5760405162461bcd60e51b815260206004820152601f60248201527f537461636b42616c6c3a20696e73756666696369656e742062616c616e6365006044820152606401610a76565b815460ff191660019081178355428382015560075410611d945760075f81548110611d5c57611d5c612e3a565b5f9182526020909120600491820201546002840180546001600160a01b0319166001600160a01b039092169190911790555460058301555b600754600211611dec576007600181548110611db257611db2612e3a565b5f9182526020909120600490910201546003830180546001600160a01b0319166001600160a01b0390921691909117905560055460068301555b600754600311611e43576007600281548110611e0a57611e0a612e3a565b5f91825260209091206004918202015490830180546001600160a01b0319166001600160a01b0390921691909117905560065460078301555b60038381556002830154908301546004840154600585015460068601546007870154604080516001600160a01b039788168152958716602087015295909316848601526060840191909152608083015260a08201524260c0820152905184917fac71fe56bcc77fa5b1d18c5bd4c44b62065c560b1ef3e1e6ed3febbc42b3910d919081900360e00190a2611bb5611f77565b33611ede610d97565b6001600160a01b031614610cf05760405163118cdaa760e01b8152336004820152602401610a76565b7f9016d09d72d40fdae2fd8ceac6b6234c7706214fd39c1cd1e609a0528c19930080546001600160a01b031981166001600160a01b03848116918217845560405192169182907f8be0079c531659141344cd1fd0a4f28419497f9722a3daafe3b4186f6b6457e0905f90a3505050565b611f8260075f612af9565b60028054905f611f9183612f04565b9091555050426001819055600254604051918252907f5bd512e9196ccf4c945064ad869f924ffc78afd860d0896106b20a3345b4862290602001610b01565b5f8054600154611fe09190612e90565b421015905090565b5f828152600e6020526040812080548291829160ff169081158061201357506001600160a01b038616155b15612027575f805f94509450945050610e1b565b5f5b60038110156120c757866001600160a01b031682600201826003811061205157612051612e3a565b01546001600160a01b0316036120bf5781600501816003811061207657612076612e3a565b0154612083826001612e90565b83600801836003811061209857612098612e3a565b602091828204019190069054906101000a900460ff16600195509550955095505050610e1b565b600101612029565b505f97889750879650600195509350505050565b5f807ff0c57e16840df040f15088dc2f81fe391c3923bec73e23a9662efc9c229c6a00610bd6565b61210b612578565b6115b08161259d565b6002546001600160a01b0382165f908152600d6020526040902054036121375750565b600280546001600160a01b039092165f908152600d6020908152604080832094909455600890529182209081018290556003810191909155600401805460ff19169055565b6007545f90815b818110156122bc57846001600160a01b0316600782815481106121a8576121a8612e3a565b5f9182526020909120600490910201546001600160a01b0316036122b45783600782815481106121da576121da612e3a565b905f5260205f20906004020160010181905550426007828154811061220157612201612e3a565b905f5260205f2090600402016003018190555061221d816125a5565b5f5b6007548110156122b257856001600160a01b03166007828154811061224657612246612e3a565b5f9182526020909120600490910201546001600160a01b0316036122aa5761226f816001612e90565b6007828154811061228257612282612e3a565b5f9182526020909120600260049092020101556122a0816001612e90565b9350505050610bd6565b60010161221f565b505b600101612183565b50603281108061230157505f81118015612301575060076122de600183612ea3565b815481106122ee576122ee612e3a565b905f5260205f2090600402016001015483115b156124ce57603281036123a857604080516080810182526001600160a01b0386168152602081018590529081018290524260608201526007612344600184612ea3565b8154811061235457612354612e3a565b5f91825260209182902083516004929092020180546001600160a01b0319166001600160a01b0390921691909117815590820151600182015560408201516002820155606090910151600390910155612436565b60076040518060800160405280866001600160a01b031681526020018581526020018360016123d79190612e90565b8152426020918201528254600180820185555f94855293829020835160049092020180546001600160a01b0319166001600160a01b03909216919091178155908201519281019290925560408101516002830155606001516003909101555b61243e612774565b5f5b6007548110156124cc57612455816001612e90565b6007828154811061246857612468612e3a565b905f5260205f20906004020160020181905550846001600160a01b03166007828154811061249857612498612e3a565b5f9182526020909120600490910201546001600160a01b0316036124c4576124c1816001612e90565b92505b600101612440565b505b5092915050565b6124de82612970565b6040516001600160a01b038316907fbc7cd75a20ee27fd9adebab32041f755214dbc6bffa90cc0225b39da2e5c2d3b905f90a280511561252257611bb582826129d3565b610b26612a6c565b5f60018210612543576004546125409082612e90565b90505b6002821061255b576005546125589082612e90565b90505b60038210612573576006546125709082612e90565b90505b919050565b612580612a8b565b610cf057604051631afcd79f60e31b815260040160405180910390fd5b6119eb612578565b5f81118015612601575060076125bc600183612ea3565b815481106125cc576125cc612e3a565b905f5260205f20906004020160010154600782815481106125ef576125ef612e3a565b905f5260205f20906004020160010154115b156115b0575f6007828154811061261a5761261a612e3a565b5f91825260209182902060408051608081018252600490930290910180546001600160a01b031683526001808201549484019490945260028101549183019190915260030154606082015291506007906126749084612ea3565b8154811061268457612684612e3a565b905f5260205f209060040201600783815481106126a3576126a3612e3a565b5f9182526020909120825460049092020180546001600160a01b0319166001600160a01b039092169190911781556001808301548183015560028084015490830155600392830154929091019190915581906007906127029085612ea3565b8154811061271257612712612e3a565b5f91825260209182902083516004929092020180546001600160a01b0319166001600160a01b03909216919091178155908201516001820155604082015160028201556060909101516003909101558161276b81612f33565b925050506125a5565b6007545f5b612784600183612ea3565b811015610b26575f5b60016127998385612ea3565b6127a39190612ea3565b8110156129675760076127b7826001612e90565b815481106127c7576127c7612e3a565b905f5260205f20906004020160010154600782815481106127ea576127ea612e3a565b905f5260205f20906004020160010154101561295f575f6007828154811061281457612814612e3a565b5f91825260209182902060408051608081018252600490930290910180546001600160a01b0316835260018082015494840194909452600281015491830191909152600301546060820152915060079061286f908490612e90565b8154811061287f5761287f612e3a565b905f5260205f2090600402016007838154811061289e5761289e612e3a565b5f9182526020909120825460049092020180546001600160a01b0319166001600160a01b039092169190911781556001808301548183015560028084015490830155600392830154929091019190915581906007906128fe908590612e90565b8154811061290e5761290e612e3a565b5f91825260209182902083516004929092020180546001600160a01b0319166001600160a01b0390921691909117815590820151600182015560408201516002820155606090910151600390910155505b60010161278d565b50600101612779565b806001600160a01b03163b5f036129a557604051634c9c8ce360e01b81526001600160a01b0382166004820152602401610a76565b5f80516020612f4983398151915280546001600160a01b0319166001600160a01b0392909216919091179055565b60605f6129e08484612aa4565b9050808015612a0157505f3d1180612a0157505f846001600160a01b03163b115b15612a1657612a0e612ab7565b915050610bd6565b8015612a4057604051639996b31560e01b81526001600160a01b0385166004820152602401610a76565b3d15612a5357612a4e612ad0565b6124ce565b60405163d6bda27560e01b815260040160405180910390fd5b3415610cf05760405163b398979f60e01b815260040160405180910390fd5b5f612a946120db565b54600160401b900460ff16919050565b5f805f835160208501865af49392505050565b6040513d81523d5f602083013e3d602001810160405290565b6040513d5f823e3d81fd5b60405180606001604052806003906020820280368337509192915050565b5080545f8255600402905f5260205f20908101906115b091905b80821115612b455780546001600160a01b03191681555f60018201819055600282018190556003820155600401612b13565b5090565b80356001600160a01b0381168114612573575f80fd5b5f60208284031215612b6f575f80fd5b612b7882612b49565b9392505050565b634e487b7160e01b5f52604160045260245ffd5b5f8060408385031215612ba4575f80fd5b612bad83612b49565b9150602083013567ffffffffffffffff80821115612bc9575f80fd5b818501915085601f830112612bdc575f80fd5b813581811115612bee57612bee612b7f565b604051601f8201601f19908116603f01168101908382118183101715612c1657612c16612b7f565b81604052828152886020848701011115612c2e575f80fd5b826020860160208301375f6020848301015280955050505050509250929050565b602080825282518282018190525f919060409081850190868401855b82811015612cae57815180516001600160a01b03168552868101518786015285810151868601526060908101519085015260809093019290850190600101612c6b565b5091979650505050505050565b5f805f60608486031215612ccd575f80fd5b505081359360208301359350604090920135919050565b5f60208284031215612cf4575f80fd5b5035919050565b5f8060408385031215612d0c575f80fd5b82359150612d1c60208401612b49565b90509250929050565b5f602080835283518060208501525f5b81811015612d5157858101830151858201604001528201612d35565b505f604082860101526040601f19601f8301168501019250505092915050565b805f5b6003811015612d955781511515845260209384019390910190600101612d74565b50505050565b610160810181875f5b6003811015612dcc5781516001600160a01b0316835260209283019290910190600101612da4565b50505060608201865f5b6003811015612df5578151835260209283019290910190600101612dd6565b505050612e0560c0830186612d71565b92151561012082015261014001529392505050565b5f8060408385031215612e2b575f80fd5b50508035926020909101359150565b634e487b7160e01b5f52603260045260245ffd5b60208082526014908201527329ba30b1b5a130b6361d103737ba1037bbb732b960611b604082015260600190565b634e487b7160e01b5f52601160045260245ffd5b80820180821115610bd657610bd6612e7c565b81810381811115610bd657610bd6612e7c565b6020808252602e908201527f537461636b42616c6c3a20706572696f6420657870697265642c2063616c6c2060408201526d199a5b985b1a5e9954195c9a5bd960921b606082015260800190565b5f60018201612f1557612f15612e7c565b5060010190565b5f60208284031215612f2c575f80fd5b5051919050565b5f81612f4157612f41612e7c565b505f19019056fe360894a13ba1a3210667c828492db98dca3e2076cc3735a920a3ca505d382bbca26469706673582212209fe7b9e10f78ffc89ca5ab341b93945ae80a12b44f2bb8d3d0879ca56f65c26c64736f6c63430008170033","linkReferences":{}},"methodIdentifiers":{"MAX_LEADERBOARD()":"02802a64","MIN_GAME_DURATION()":"115e33ae","SUBMIT_COOLDOWN()":"409f6c63","UPGRADE_INTERFACE_VERSION()":"ad3cb1cc","activeSession(address)":"08523968","claimReward(uint256)":"ae169a50","depositPrize()":"4e083278","distributeRewards()":"6f4a2cd0","emergencyWithdraw()":"db2e21bc","finalizePeriod()":"a9813207","forceReset()":"8b680cc3","getClaimableReward(uint256,address)":"ab3b55e3","getContractBalance()":"6f9fb98a","getLatestClaimableReward(address)":"90360177","getLeaderboard()":"6d763a6e","getLeaderboardTop3()":"27e39313","getPeriodWinners(uint256)":"b5a15bbf","getPlayerStats(address)":"4fd66eae","getPrizes()":"ec000bb5","getTimeUntilReset()":"513a39b7","initialize(address)":"c4d66de8","isPeriodExpired()":"8b6d4bde","isPeriodFinalized(uint256)":"d48e05a1","lastSubmitTime(address)":"8d39905f","latestFinalizedPeriod()":"913baf5d","leaderboard(uint256)":"bf368399","owner()":"8da5cb5b","periodDuration()":"b470aade","periodNumber()":"0df99ff1","periodStart()":"eda4e6d6","playerStats(address)":"cdafbbb6","playerStatsPeriod(address)":"b595e552","prize1()":"7675a419","prize2()":"c05b55ac","prize3()":"618abf12","proxiableUUID()":"52d1902d","renounceOwnership()":"715018a6","sessions(bytes32)":"7dbd2832","setPrizes(uint256,uint256,uint256)":"79ec0eaf","startGame()":"d65ab5f2","submitScore(uint256,bytes32)":"def8315a","transferOwnership(address)":"f2fde38b","upgradeToAndCall(address,bytes)":"4f1ef286","usedHashes(bytes32)":"aef18bf7"},"id":40}