{"abi":[{"type":"constructor","inputs":[],"stateMutability":"nonpayable"},{"type":"fallback","stateMutability":"payable"},{"type":"receive","stateMutability":"payable"},{"type":"function","name":"MIN_GAME_DURATION","inputs":[],"outputs":[{"name":"","type":"uint256","internalType":"uint256"}],"stateMutability":"view"},{"type":"function","name":"SUBMIT_COOLDOWN","inputs":[],"outputs":[{"name":"","type":"uint256","internalType":"uint256"}],"stateMutability":"view"},{"type":"function","name":"UPGRADE_INTERFACE_VERSION","inputs":[],"outputs":[{"name":"","type":"string","internalType":"string"}],"stateMutability":"view"},{"type":"function","name":"activeSession","inputs":[{"name":"","type":"address","internalType":"address"}],"outputs":[{"name":"","type":"bytes32","internalType":"bytes32"}],"stateMutability":"view"},{"type":"function","name":"claimReward","inputs":[{"name":"periodId","type":"uint256","internalType":"uint256"}],"outputs":[],"stateMutability":"nonpayable"},{"type":"function","name":"depositPrize","inputs":[],"outputs":[],"stateMutability":"payable"},{"type":"function","name":"emergencyWithdraw","inputs":[],"outputs":[],"stateMutability":"nonpayable"},{"type":"function","name":"finalizePeriodWithWinners","inputs":[{"name":"winners","type":"address[3]","internalType":"address[3]"},{"name":"rewards","type":"uint256[3]","internalType":"uint256[3]"}],"outputs":[],"stateMutability":"nonpayable"},{"type":"function","name":"forceReset","inputs":[],"outputs":[],"stateMutability":"nonpayable"},{"type":"function","name":"getClaimableReward","inputs":[{"name":"periodId","type":"uint256","internalType":"uint256"},{"name":"player","type":"address","internalType":"address"}],"outputs":[{"name":"amount","type":"uint256","internalType":"uint256"},{"name":"rank","type":"uint256","internalType":"uint256"},{"name":"claimed","type":"bool","internalType":"bool"},{"name":"finalized","type":"bool","internalType":"bool"}],"stateMutability":"view"},{"type":"function","name":"getContractBalance","inputs":[],"outputs":[{"name":"","type":"uint256","internalType":"uint256"}],"stateMutability":"view"},{"type":"function","name":"getLatestClaimableReward","inputs":[{"name":"player","type":"address","internalType":"address"}],"outputs":[{"name":"periodId","type":"uint256","internalType":"uint256"},{"name":"amount","type":"uint256","internalType":"uint256"},{"name":"rank","type":"uint256","internalType":"uint256"},{"name":"claimed","type":"bool","internalType":"bool"},{"name":"finalized","type":"bool","internalType":"bool"}],"stateMutability":"view"},{"type":"function","name":"getPeriodWinners","inputs":[{"name":"periodId","type":"uint256","internalType":"uint256"}],"outputs":[{"name":"winners","type":"address[3]","internalType":"address[3]"},{"name":"rewards","type":"uint256[3]","internalType":"uint256[3]"},{"name":"claimed","type":"bool[3]","internalType":"bool[3]"},{"name":"finalized","type":"bool","internalType":"bool"},{"name":"finalizedAt","type":"uint256","internalType":"uint256"}],"stateMutability":"view"},{"type":"function","name":"getPlayerStats","inputs":[{"name":"player","type":"address","internalType":"address"}],"outputs":[{"name":"","type":"tuple","internalType":"struct StackBallGameV2.PlayerStats","components":[{"name":"totalGames","type":"uint256","internalType":"uint256"},{"name":"bestScore","type":"uint256","internalType":"uint256"},{"name":"currentPeriodScore","type":"uint256","internalType":"uint256"},{"name":"currentRank","type":"uint256","internalType":"uint256"},{"name":"hasSubmittedThisPeriod","type":"bool","internalType":"bool"}]}],"stateMutability":"view"},{"type":"function","name":"getPrizes","inputs":[],"outputs":[{"name":"","type":"uint256","internalType":"uint256"},{"name":"","type":"uint256","internalType":"uint256"},{"name":"","type":"uint256","internalType":"uint256"}],"stateMutability":"view"},{"type":"function","name":"getTimeUntilReset","inputs":[],"outputs":[{"name":"","type":"uint256","internalType":"uint256"}],"stateMutability":"view"},{"type":"function","name":"initialize","inputs":[{"name":"owner","type":"address","internalType":"address"}],"outputs":[],"stateMutability":"nonpayable"},{"type":"function","name":"isPeriodExpired","inputs":[],"outputs":[{"name":"","type":"bool","internalType":"bool"}],"stateMutability":"view"},{"type":"function","name":"isPeriodFinalized","inputs":[{"name":"periodId","type":"uint256","internalType":"uint256"}],"outputs":[{"name":"","type":"bool","internalType":"bool"}],"stateMutability":"view"},{"type":"function","name":"lastSubmitTime","inputs":[{"name":"","type":"address","internalType":"address"}],"outputs":[{"name":"","type":"uint256","internalType":"uint256"}],"stateMutability":"view"},{"type":"function","name":"latestFinalizedPeriod","inputs":[],"outputs":[{"name":"","type":"uint256","internalType":"uint256"}],"stateMutability":"view"},{"type":"function","name":"owner","inputs":[],"outputs":[{"name":"","type":"address","internalType":"address"}],"stateMutability":"view"},{"type":"function","name":"periodDuration","inputs":[],"outputs":[{"name":"","type":"uint256","internalType":"uint256"}],"stateMutability":"view"},{"type":"function","name":"periodNumber","inputs":[],"outputs":[{"name":"","type":"uint256","internalType":"uint256"}],"stateMutability":"view"},{"type":"function","name":"periodPlayerScores","inputs":[{"name":"","type":"uint256","internalType":"uint256"},{"name":"","type":"address","internalType":"address"}],"outputs":[{"name":"","type":"uint256","internalType":"uint256"}],"stateMutability":"view"},{"type":"function","name":"periodStart","inputs":[],"outputs":[{"name":"","type":"uint256","internalType":"uint256"}],"stateMutability":"view"},{"type":"function","name":"playerStats","inputs":[{"name":"","type":"address","internalType":"address"}],"outputs":[{"name":"totalGames","type":"uint256","internalType":"uint256"},{"name":"bestScore","type":"uint256","internalType":"uint256"},{"name":"currentPeriodScore","type":"uint256","internalType":"uint256"},{"name":"currentRank","type":"uint256","internalType":"uint256"},{"name":"hasSubmittedThisPeriod","type":"bool","internalType":"bool"}],"stateMutability":"view"},{"type":"function","name":"playerStatsPeriod","inputs":[{"name":"","type":"address","internalType":"address"}],"outputs":[{"name":"","type":"uint256","internalType":"uint256"}],"stateMutability":"view"},{"type":"function","name":"prize1","inputs":[],"outputs":[{"name":"","type":"uint256","internalType":"uint256"}],"stateMutability":"view"},{"type":"function","name":"prize2","inputs":[],"outputs":[{"name":"","type":"uint256","internalType":"uint256"}],"stateMutability":"view"},{"type":"function","name":"prize3","inputs":[],"outputs":[{"name":"","type":"uint256","internalType":"uint256"}],"stateMutability":"view"},{"type":"function","name":"proxiableUUID","inputs":[],"outputs":[{"name":"","type":"bytes32","internalType":"bytes32"}],"stateMutability":"view"},{"type":"function","name":"renounceOwnership","inputs":[],"outputs":[],"stateMutability":"nonpayable"},{"type":"function","name":"sessions","inputs":[{"name":"","type":"bytes32","internalType":"bytes32"}],"outputs":[{"name":"player","type":"address","internalType":"address"},{"name":"startTime","type":"uint96","internalType":"uint96"},{"name":"isActive","type":"bool","internalType":"bool"},{"name":"isSubmitted","type":"bool","internalType":"bool"}],"stateMutability":"view"},{"type":"function","name":"setPrizes","inputs":[{"name":"_p1","type":"uint256","internalType":"uint256"},{"name":"_p2","type":"uint256","internalType":"uint256"},{"name":"_p3","type":"uint256","internalType":"uint256"}],"outputs":[],"stateMutability":"nonpayable"},{"type":"function","name":"startGame","inputs":[],"outputs":[{"name":"sessionId","type":"bytes32","internalType":"bytes32"}],"stateMutability":"nonpayable"},{"type":"function","name":"submitScore","inputs":[{"name":"totalScore","type":"uint256","internalType":"uint256"},{"name":"gameHash","type":"bytes32","internalType":"bytes32"}],"outputs":[],"stateMutability":"nonpayable"},{"type":"function","name":"transferOwnership","inputs":[{"name":"newOwner","type":"address","internalType":"address"}],"outputs":[],"stateMutability":"nonpayable"},{"type":"function","name":"upgradeToAndCall","inputs":[{"name":"newImplementation","type":"address","internalType":"address"},{"name":"data","type":"bytes","internalType":"bytes"}],"outputs":[],"stateMutability":"payable"},{"type":"function","name":"usedHashes","inputs":[{"name":"","type":"bytes32","internalType":"bytes32"}],"outputs":[{"name":"","type":"bool","internalType":"bool"}],"stateMutability":"view"},{"type":"event","name":"GameStarted","inputs":[{"name":"player","type":"address","indexed":true,"internalType":"address"},{"name":"sessionId","type":"bytes32","indexed":true,"internalType":"bytes32"},{"name":"timestamp","type":"uint256","indexed":false,"internalType":"uint256"}],"anonymous":false},{"type":"event","name":"Initialized","inputs":[{"name":"version","type":"uint64","indexed":false,"internalType":"uint64"}],"anonymous":false},{"type":"event","name":"LeaderboardReset","inputs":[{"name":"periodNumber","type":"uint256","indexed":true,"internalType":"uint256"},{"name":"timestamp","type":"uint256","indexed":false,"internalType":"uint256"}],"anonymous":false},{"type":"event","name":"OwnershipTransferred","inputs":[{"name":"previousOwner","type":"address","indexed":true,"internalType":"address"},{"name":"newOwner","type":"address","indexed":true,"internalType":"address"}],"anonymous":false},{"type":"event","name":"PeriodFinalized","inputs":[{"name":"periodNumber","type":"uint256","indexed":true,"internalType":"uint256"},{"name":"winner1","type":"address","indexed":false,"internalType":"address"},{"name":"winner2","type":"address","indexed":false,"internalType":"address"},{"name":"winner3","type":"address","indexed":false,"internalType":"address"},{"name":"reward1","type":"uint256","indexed":false,"internalType":"uint256"},{"name":"reward2","type":"uint256","indexed":false,"internalType":"uint256"},{"name":"reward3","type":"uint256","indexed":false,"internalType":"uint256"},{"name":"timestamp","type":"uint256","indexed":false,"internalType":"uint256"}],"anonymous":false},{"type":"event","name":"PrizeDeposited","inputs":[{"name":"from","type":"address","indexed":true,"internalType":"address"},{"name":"amount","type":"uint256","indexed":false,"internalType":"uint256"},{"name":"contractBalance","type":"uint256","indexed":false,"internalType":"uint256"}],"anonymous":false},{"type":"event","name":"RewardClaimed","inputs":[{"name":"winner","type":"address","indexed":true,"internalType":"address"},{"name":"periodNumber","type":"uint256","indexed":true,"internalType":"uint256"},{"name":"amount","type":"uint256","indexed":false,"internalType":"uint256"},{"name":"rank","type":"uint256","indexed":false,"internalType":"uint256"},{"name":"timestamp","type":"uint256","indexed":false,"internalType":"uint256"}],"anonymous":false},{"type":"event","name":"ScoreSubmitted","inputs":[{"name":"player","type":"address","indexed":true,"internalType":"address"},{"name":"score","type":"uint256","indexed":false,"internalType":"uint256"},{"name":"periodNumber","type":"uint256","indexed":false,"internalType":"uint256"},{"name":"timestamp","type":"uint256","indexed":false,"internalType":"uint256"}],"anonymous":false},{"type":"event","name":"Upgraded","inputs":[{"name":"implementation","type":"address","indexed":true,"internalType":"address"}],"anonymous":false},{"type":"error","name":"AddressEmptyCode","inputs":[{"name":"target","type":"address","internalType":"address"}]},{"type":"error","name":"ERC1967InvalidImplementation","inputs":[{"name":"implementation","type":"address","internalType":"address"}]},{"type":"error","name":"ERC1967NonPayable","inputs":[]},{"type":"error","name":"FailedCall","inputs":[]},{"type":"error","name":"InvalidInitialization","inputs":[]},{"type":"error","name":"NotInitializing","inputs":[]},{"type":"error","name":"OwnableInvalidOwner","inputs":[{"name":"owner","type":"address","internalType":"address"}]},{"type":"error","name":"OwnableUnauthorizedAccount","inputs":[{"name":"account","type":"address","internalType":"address"}]},{"type":"error","name":"UUPSUnauthorizedCallContext","inputs":[]},{"type":"error","name":"UUPSUnsupportedProxiableUUID","inputs":[{"name":"slot","type":"bytes32","internalType":"bytes32"}]}],"bytecode":{"object":"0x60a06040523060805234801562000014575f80fd5b506200001f62000025565b620000d9565b7ff0c57e16840df040f15088dc2f81fe391c3923bec73e23a9662efc9c229c6a00805468010000000000000000900460ff1615620000765760405163f92ee8a960e01b815260040160405180910390fd5b80546001600160401b0390811614620000d65780546001600160401b0319166001600160401b0390811782556040519081527fc7f505b2f371ae2175ee4913f4499e1f2633a7b5936321eed1cdaeb6115181d29060200160405180910390a15b50565b60805161257f620001005f395f8181611ae301528181611b0c0152611c80015261257f5ff3fe608060405260043610610226575f3560e01c8063913baf5d11610121578063c05b55ac116100a4578063db2e21bc1161006b578063db2e21bc146107c1578063def8315a146107d5578063ec000bb5146107f4578063eda4e6d614610824578063f2fde38b1461083957005b8063c05b55ac146106d6578063c4d66de8146106eb578063cdafbbb61461070a578063d48e05a11461077f578063d65ab5f2146107ad57005b8063aef18bf7116100e8578063aef18bf714610603578063b470aade14610631578063b595e55214610645578063b5a15bbf14610670578063b93261b1146106a057005b8063913baf5d1461052c578063a7d05fbb14610541578063ab3b55e314610560578063ad3cb1cc146105a7578063ae169a50146105e457005b80636f9fb98a116101a95780638b680cc3116101705780638b680cc3146104525780638b6d4bde146104665780638d39905f1461048a5780638da5cb5b146104b557806390360177146104e157005b80636f9fb98a14610364578063715018a6146103765780637675a4191461038a57806379ec0eaf1461039f5780637dbd2832146103be57005b80634f1ef286116101ed5780634f1ef286146102b25780634fd66eae146102c5578063513a39b71461032757806352d1902d1461033b578063618abf121461034f57005b8063085239681461022f5780630df99ff11461026d578063115e33ae14610282578063409f6c63146102965780634e083278146102aa57005b3661022d57005b005b34801561023a575f80fd5b5061025a610249366004612187565b60096020525f908152604090205481565b6040519081526020015b60405180910390f35b348015610278575f80fd5b5061025a60025481565b34801561028d575f80fd5b5061025a600a81565b3480156102a1575f80fd5b5061025a601e81565b61022d610858565b61022d6102c03660046121bb565b610925565b3480156102d0575f80fd5b506102e46102df366004612187565b610944565b60405161026491905f60a0820190508251825260208301516020830152604083015160408301526060830151606083015260808301511515608083015292915050565b348015610332575f80fd5b5061025a6109f6565b348015610346575f80fd5b5061025a610a27565b34801561035a575f80fd5b5061025a60065481565b34801561036f575f80fd5b504761025a565b348015610381575f80fd5b5061022d610a42565b348015610395575f80fd5b5061025a60045481565b3480156103aa575f80fd5b5061022d6103b9366004612277565b610a55565b3480156103c9575f80fd5b506104186103d83660046122a0565b60086020525f9081526040902080546001909101546001600160a01b03821691600160a01b90046001600160601b03169060ff8082169161010090041684565b604080516001600160a01b0390951685526001600160601b0390931660208501529015159183019190915215156060820152608001610264565b34801561045d575f80fd5b5061022d610a9b565b348015610471575f80fd5b5061047a610adb565b6040519015158152602001610264565b348015610495575f80fd5b5061025a6104a4366004612187565b600b6020525f908152604090205481565b3480156104c0575f80fd5b506104c9610ae9565b6040516001600160a01b039091168152602001610264565b3480156104ec575f80fd5b506105006104fb366004612187565b610b17565b60408051958652602086019490945292840191909152151560608301521515608082015260a001610264565b348015610537575f80fd5b5061025a60035481565b34801561054c575f80fd5b5061022d61055b3660046122c7565b610b56565b34801561056b575f80fd5b5061057f61057a3660046122fa565b610efd565b6040805194855260208501939093529015159183019190915215156060820152608001610264565b3480156105b2575f80fd5b506105d7604051806040016040528060058152602001640352e302e360dc1b81525081565b604051610264919061231b565b3480156105ef575f80fd5b5061022d6105fe3660046122a0565b610f1d565b34801561060e575f80fd5b5061047a61061d3660046122a0565b600a6020525f908152604090205460ff1681565b34801561063c575f80fd5b5061025a5f5481565b348015610650575f80fd5b5061025a61065f366004612187565b600c6020525f908152604090205481565b34801561067b575f80fd5b5061068f61068a3660046122a0565b6111b8565b604051610264959493929190612391565b3480156106ab575f80fd5b5061025a6106ba3660046122fa565b600e60209081525f928352604080842090915290825290205481565b3480156106e1575f80fd5b5061025a60055481565b3480156106f6575f80fd5b5061022d610705366004612187565b6112c8565b348015610715575f80fd5b50610755610724366004612187565b60076020525f9081526040902080546001820154600283015460038401546004909401549293919290919060ff1685565b6040805195865260208601949094529284019190915260608301521515608082015260a001610264565b34801561078a575f80fd5b5061047a6107993660046122a0565b5f908152600d602052604090205460ff1690565b3480156107b8575f80fd5b5061025a6113f4565b3480156107cc575f80fd5b5061022d611589565b3480156107e0575f80fd5b5061022d6107ef366004612410565b61166a565b3480156107ff575f80fd5b5060045460055460065460408051938452602084019290925290820152606001610264565b34801561082f575f80fd5b5061025a60015481565b348015610844575f80fd5b5061022d610853366004612187565b611a9e565b610860610ae9565b6001600160a01b0316336001600160a01b0316146108995760405162461bcd60e51b815260040161089090612430565b60405180910390fd5b5f34116108e85760405162461bcd60e51b815260206004820152601960248201527f537461636b42616c6c3a206d7573742073656e642043454c4f000000000000006044820152606401610890565b6040805134815247602082015233917f93e71a765d9dbd78bb81630ff384cea4889a4dd193703dd81f51584e20e7150891015b60405180910390a2565b61092d611ad8565b61093682611b7c565b6109408282611bb4565b5050565b6109736040518060a001604052805f81526020015f81526020015f81526020015f81526020015f151581525090565b6001600160a01b0382165f818152600760209081526040808320815160a08101835281548152600182015481850152600280830154828501526003830154606083015260049092015460ff16151560808201529054948452600c909252909120549091146109f0575f604082018190526060820181905260808201525b92915050565b5f805f54600154610a079190612472565b9050804210610a17575f91505090565b610a214282612485565b91505090565b5f610a30611c75565b505f8051602061252a83398151915290565b610a4a611cbe565b610a535f611cf0565b565b610a5d610ae9565b6001600160a01b0316336001600160a01b031614610a8d5760405162461bcd60e51b815260040161089090612430565b600492909255600555600655565b610aa3610ae9565b6001600160a01b0316336001600160a01b031614610ad35760405162461bcd60e51b815260040161089090612430565b610a53611d60565b5f610ae4611dae565b905090565b7f9016d09d72d40fdae2fd8ceac6b6234c7706214fd39c1cd1e609a0528c199300546001600160a01b031690565b6003545f808080848103610b3857505f935083925082915081905080610b4d565b610b428587611dc6565b929650909450925090505b91939590929450565b610b5e610ae9565b6001600160a01b0316336001600160a01b031614610b8e5760405162461bcd60e51b815260040161089090612430565b610b96611dae565b610bec5760405162461bcd60e51b815260206004820152602160248201527f537461636b42616c6c3a20706572696f64206e6f7420796574206578706972656044820152601960fa1b6064820152608401610890565b6002545f818152600d60205260409020805460ff1615610c5a5760405162461bcd60e51b815260206004820152602360248201527f537461636b42616c6c3a20706572696f6420616c72656164792066696e616c696044820152621e995960ea1b6064820152608401610890565b5f6040840135610c6f60208601358635612472565b610c799190612472565b905080471015610ccb5760405162461bcd60e51b815260206004820152601f60248201527f537461636b42616c6c3a20696e73756666696369656e742062616c616e6365006044820152606401610890565b5f5b6003811015610d89575f868260038110610ce957610ce9612498565b602002016020810190610cfc9190612187565b6001600160a01b031603610d8157848160038110610d1c57610d1c612498565b602002013515610d815760405162461bcd60e51b815260206004820152602a60248201527f537461636b42616c6c3a207a65726f20616464726573732063616e6e6f742068604482015269185d99481c995dd85c9960b21b6064820152608401610890565b600101610ccd565b50815460ff1916600190811783554290830155610da96020860186612187565b6002830180546001600160a01b0319166001600160a01b0392909216919091179055610ddb6040860160208701612187565b6003830180546001600160a01b0319166001600160a01b0392909216919091179055610e0d6060860160408701612187565b6004830180546001600160a01b0319166001600160a01b039290921691909117905583356005830155602080850135600684015560408501356007840155600384905583907fac71fe56bcc77fa5b1d18c5bd4c44b62065c560b1ef3e1e6ed3febbc42b3910d90610e8090880188612187565b610e906040890160208a01612187565b610ea060608a0160408b01612187565b604080516001600160a01b03948516815292841660208481019190915291909316828401528835606083015288013560808201529087013560a08201524260c082015260e00160405180910390a2610ef6611d60565b5050505050565b5f805f80610f0b8686611dc6565b93509350935093505b92959194509250565b5f805f80610f2b8533611dc6565b935093509350935080610f805760405162461bcd60e51b815260206004820152601f60248201527f537461636b42616c6c3a20706572696f64206e6f742066696e616c697a6564006044820152606401610890565b5f8411610fcf5760405162461bcd60e51b815260206004820152601e60248201527f537461636b42616c6c3a206e6f2072657761726420617661696c61626c6500006044820152606401610890565b81156110275760405162461bcd60e51b815260206004820152602160248201527f537461636b42616c6c3a2072657761726420616c726561647920636c61696d656044820152601960fa1b6064820152608401610890565b834710156110775760405162461bcd60e51b815260206004820152601f60248201527f537461636b42616c6c3a20696e73756666696369656e742062616c616e6365006044820152606401610890565b5f858152600d602052604090206001600882016110948287612485565b600381106110a4576110a4612498565b602091828204019190066101000a81548160ff0219169083151502179055505f336001600160a01b0316866040515f6040518083038185875af1925050503d805f811461110c576040519150601f19603f3d011682016040523d82523d5f602084013e611111565b606091505b505090508061116c5760405162461bcd60e51b815260206004820152602160248201527f537461636b42616c6c3a20726577617264207472616e73666572206661696c656044820152601960fa1b6064820152608401610890565b604080518781526020810187905242818301529051889133917f9e80c048bc588b388047ffc6e8153e7c11aa34312de7ed62e1858ff3a44ddce89181900360600190a350505050505050565b6111c061214e565b6111c861214e565b6111d061214e565b5f848152600d602052604080822080546001820154835160608101909452849360028401926005850192600886019260ff909216918560038282826020028201915b81546001600160a01b0316815260019091019060200180831161121257505060408051606081019182905294995088935060039250905082845b81548152602001906001019080831161124c575050604080516060810191829052949850879350600392509050825f855b825461010083900a900460ff16151581526020600192830181810494850194909303909202910180841161127d57905050505050509250955095509550955095505091939590929450565b5f6112d1611eb9565b805490915060ff600160401b820416159067ffffffffffffffff165f811580156112f85750825b90505f8267ffffffffffffffff1660011480156113145750303b155b905081158015611322575080155b156113405760405163f92ee8a960e01b815260040160405180910390fd5b845467ffffffffffffffff19166001178555831561136a57845460ff60401b1916600160401b1785555b61137386611ee1565b62093a805f55426001908155600255678ac7230489e80000600455676124fee993bc0000600555674563918244f4000060065583156113ec57845460ff60401b19168555604051600181527fc7f505b2f371ae2175ee4913f4499e1f2633a7b5936321eed1cdaeb6115181d29060200160405180910390a15b505050505050565b5f6113fd611dae565b1561141a5760405162461bcd60e51b8152600401610890906124ac565b61142333611ef2565b50335f8181526007602090815260408083205481516bffffffffffffffffffffffff19606087901b1681850152426034820152446054820152607480820192909252825180820390920182526094018252805190830120938352600990915290205480156114a4575f818152600860205260409020600101805460ff191690555b60408051608081018252338082526001600160601b03428116602080850191825260018587018181525f606088018181528b82526008855289822098519551909616600160a01b026001600160a01b03959095169490941787555195018054935115156101000261ff00199615159690961661ffff199094169390931794909417909155908152600982528281208590556007909152908120805491611549836124fa565b9091555050604051428152829033907f859d3597c1e4f44ea32d4e3690849b94fd0a0a07a15da3f5663ecf3c4cd5b0f09060200160405180910390a35090565b611591610ae9565b6001600160a01b0316336001600160a01b0316146115c15760405162461bcd60e51b815260040161089090612430565b5f6115ca610ae9565b6001600160a01b0316476040515f6040518083038185875af1925050503d805f8114611611576040519150601f19603f3d011682016040523d82523d5f602084013e611616565b606091505b50509050806116675760405162461bcd60e51b815260206004820152601a60248201527f537461636b42616c6c3a207769746864726177206661696c65640000000000006044820152606401610890565b50565b611672611dae565b1561168f5760405162461bcd60e51b8152600401610890906124ac565b5f818152600a602052604090205460ff16156116ed5760405162461bcd60e51b815260206004820152601c60248201527f537461636b42616c6c3a206861736820616c72656164792075736564000000006044820152606401610890565b335f90815260096020526040902054806117495760405162461bcd60e51b815260206004820152601c60248201527f537461636b42616c6c3a206e6f206163746976652073657373696f6e000000006044820152606401610890565b5f81815260086020526040902080546001600160a01b031633146117af5760405162461bcd60e51b815260206004820152601b60248201527f537461636b42616c6c3a206e6f7420796f75722073657373696f6e00000000006044820152606401610890565b600181015460ff166118035760405162461bcd60e51b815260206004820152601d60248201527f537461636b42616c6c3a2073657373696f6e206e6f74206163746976650000006044820152606401610890565b6001810154610100900460ff161561185d5760405162461bcd60e51b815260206004820152601c60248201527f537461636b42616c6c3a20616c7265616479207375626d6974746564000000006044820152606401610890565b805461187b90600a90600160a01b90046001600160601b0316612472565b4210156118ca5760405162461bcd60e51b815260206004820152601960248201527f537461636b42616c6c3a2067616d6520746f6f2073686f7274000000000000006044820152606401610890565b335f908152600b602052604090205415806118ff5750335f908152600b60205260409020546118fb90601e90612472565b4210155b61194b5760405162461bcd60e51b815260206004820152601a60248201527f537461636b42616c6c3a207375626d697420746f6f20736f6f6e0000000000006044820152606401610890565b5f84116119a45760405162461bcd60e51b815260206004820152602160248201527f537461636b42616c6c3a2073636f7265206d75737420626520706f73697469766044820152606560f81b6064820152608401610890565b5f838152600a60209081526040808320805460ff19166001908117909155848101805461ffff191661010017905533845260098352818420849055600b8352818420429055600790925290912090810154851115611a0457600181018590555b611a0d33611ef2565b84816002015f828254611a209190612472565b909155505060048101805460ff1916600117905560028082015481545f908152600e6020908152604080832033808552908352928190208490559354845193845290830152428284015291517fc3d569bab9b8a4ed0f3f5808a8a5f9b046ac3e6b9b15607815ef8b40642a13d9916060908290030190a25050505050565b611aa6611cbe565b6001600160a01b038116611acf57604051631e4fbdf760e01b81525f6004820152602401610890565b61166781611cf0565b306001600160a01b037f0000000000000000000000000000000000000000000000000000000000000000161480611b5e57507f00000000000000000000000000000000000000000000000000000000000000006001600160a01b0316611b525f8051602061252a833981519152546001600160a01b031690565b6001600160a01b031614155b15610a535760405163703e46dd60e11b815260040160405180910390fd5b611b84610ae9565b6001600160a01b0316336001600160a01b0316146116675760405162461bcd60e51b815260040161089090612430565b816001600160a01b03166352d1902d6040518163ffffffff1660e01b8152600401602060405180830381865afa925050508015611c0e575060408051601f3d908101601f19168201909252611c0b91810190612512565b60015b611c3657604051634c9c8ce360e01b81526001600160a01b0383166004820152602401610890565b5f8051602061252a8339815191528114611c6657604051632a87526960e21b815260048101829052602401610890565b611c708383611f5a565b505050565b306001600160a01b037f00000000000000000000000000000000000000000000000000000000000000001614610a535760405163703e46dd60e11b815260040160405180910390fd5b33611cc7610ae9565b6001600160a01b031614610a535760405163118cdaa760e01b8152336004820152602401610890565b7f9016d09d72d40fdae2fd8ceac6b6234c7706214fd39c1cd1e609a0528c19930080546001600160a01b031981166001600160a01b03848116918217845560405192169182907f8be0079c531659141344cd1fd0a4f28419497f9722a3daafe3b4186f6b6457e0905f90a3505050565b60028054905f611d6f836124fa565b9091555050426001819055600254604051918252907f5bd512e9196ccf4c945064ad869f924ffc78afd860d0896106b20a3345b486229060200161091b565b5f8054600154611dbe9190612472565b421015905090565b5f828152600d6020526040812080548291829160ff1690811580611df157506001600160a01b038616155b15611e05575f805f94509450945050610f14565b5f5b6003811015611ea557866001600160a01b0316826002018260038110611e2f57611e2f612498565b01546001600160a01b031603611e9d57816005018160038110611e5457611e54612498565b0154611e61826001612472565b836008018360038110611e7657611e76612498565b602091828204019190069054906101000a900460ff16600195509550955095505050610f14565b600101611e07565b505f97889750879650600195509350505050565b5f807ff0c57e16840df040f15088dc2f81fe391c3923bec73e23a9662efc9c229c6a006109f0565b611ee9611faf565b61166781611fd4565b6002546001600160a01b0382165f908152600c602052604090205403611f155750565b600280546001600160a01b039092165f908152600c6020908152604080832094909455600790529182209081018290556003810191909155600401805460ff19169055565b611f6382611fdc565b6040516001600160a01b038316907fbc7cd75a20ee27fd9adebab32041f755214dbc6bffa90cc0225b39da2e5c2d3b905f90a2805115611fa757611c70828261203f565b6109406120df565b611fb76120fe565b610a5357604051631afcd79f60e31b815260040160405180910390fd5b611aa6611faf565b806001600160a01b03163b5f0361201157604051634c9c8ce360e01b81526001600160a01b0382166004820152602401610890565b5f8051602061252a83398151915280546001600160a01b0319166001600160a01b0392909216919091179055565b60605f61204c8484612117565b905080801561206d57505f3d118061206d57505f846001600160a01b03163b115b156120825761207a61212a565b9150506109f0565b80156120ac57604051639996b31560e01b81526001600160a01b0385166004820152602401610890565b3d156120bf576120ba612143565b6120d8565b60405163d6bda27560e01b815260040160405180910390fd5b5092915050565b3415610a535760405163b398979f60e01b815260040160405180910390fd5b5f612107611eb9565b54600160401b900460ff16919050565b5f805f835160208501865af49392505050565b6040513d81523d5f602083013e3d602001810160405290565b6040513d5f823e3d81fd5b60405180606001604052806003906020820280368337509192915050565b80356001600160a01b0381168114612182575f80fd5b919050565b5f60208284031215612197575f80fd5b6121a08261216c565b9392505050565b634e487b7160e01b5f52604160045260245ffd5b5f80604083850312156121cc575f80fd5b6121d58361216c565b9150602083013567ffffffffffffffff808211156121f1575f80fd5b818501915085601f830112612204575f80fd5b813581811115612216576122166121a7565b604051601f8201601f19908116603f0116810190838211818310171561223e5761223e6121a7565b81604052828152886020848701011115612256575f80fd5b826020860160208301375f6020848301015280955050505050509250929050565b5f805f60608486031215612289575f80fd5b505081359360208301359350604090920135919050565b5f602082840312156122b0575f80fd5b5035919050565b80606081018310156109f0575f80fd5b5f8060c083850312156122d8575f80fd5b6122e284846122b7565b91506122f184606085016122b7565b90509250929050565b5f806040838503121561230b575f80fd5b823591506122f16020840161216c565b5f602080835283518060208501525f5b818110156123475785810183015185820160400152820161232b565b505f604082860101526040601f19601f8301168501019250505092915050565b805f5b600381101561238b578151151584526020938401939091019060010161236a565b50505050565b610160810181875f5b60038110156123c25781516001600160a01b031683526020928301929091019060010161239a565b50505060608201865f5b60038110156123eb5781518352602092830192909101906001016123cc565b5050506123fb60c0830186612367565b92151561012082015261014001529392505050565b5f8060408385031215612421575f80fd5b50508035926020909101359150565b60208082526014908201527329ba30b1b5a130b6361d103737ba1037bbb732b960611b604082015260600190565b634e487b7160e01b5f52601160045260245ffd5b808201808211156109f0576109f061245e565b818103818111156109f0576109f061245e565b634e487b7160e01b5f52603260045260245ffd5b6020808252602e908201527f537461636b42616c6c3a20706572696f6420657870697265642c2063616c6c2060408201526d199a5b985b1a5e9954195c9a5bd960921b606082015260800190565b5f6001820161250b5761250b61245e565b5060010190565b5f60208284031215612522575f80fd5b505191905056fe360894a13ba1a3210667c828492db98dca3e2076cc3735a920a3ca505d382bbca2646970667358221220903777fa357731afa80fb5f12eb52eced6a3ad31de8f05f7c8376c065c68ad9764736f6c63430008170033","linkReferences":{}},"methodIdentifiers":{"MIN_GAME_DURATION()":"115e33ae","SUBMIT_COOLDOWN()":"409f6c63","UPGRADE_INTERFACE_VERSION()":"ad3cb1cc","activeSession(address)":"08523968","claimReward(uint256)":"ae169a50","depositPrize()":"4e083278","emergencyWithdraw()":"db2e21bc","finalizePeriodWithWinners(address[3],uint256[3])":"a7d05fbb","forceReset()":"8b680cc3","getClaimableReward(uint256,address)":"ab3b55e3","getContractBalance()":"6f9fb98a","getLatestClaimableReward(address)":"90360177","getPeriodWinners(uint256)":"b5a15bbf","getPlayerStats(address)":"4fd66eae","getPrizes()":"ec000bb5","getTimeUntilReset()":"513a39b7","initialize(address)":"c4d66de8","isPeriodExpired()":"8b6d4bde","isPeriodFinalized(uint256)":"d48e05a1","lastSubmitTime(address)":"8d39905f","latestFinalizedPeriod()":"913baf5d","owner()":"8da5cb5b","periodDuration()":"b470aade","periodNumber()":"0df99ff1","periodPlayerScores(uint256,address)":"b93261b1","periodStart()":"eda4e6d6","playerStats(address)":"cdafbbb6","playerStatsPeriod(address)":"b595e552","prize1()":"7675a419","prize2()":"c05b55ac","prize3()":"618abf12","proxiableUUID()":"52d1902d","renounceOwnership()":"715018a6","sessions(bytes32)":"7dbd2832","setPrizes(uint256,uint256,uint256)":"79ec0eaf","startGame()":"d65ab5f2","submitScore(uint256,bytes32)":"def8315a","transferOwnership(address)":"f2fde38b","upgradeToAndCall(address,bytes)":"4f1ef286","usedHashes(bytes32)":"aef18bf7"},"id":41}