{
    "abi": [
        {
            "type": "constructor",
            "inputs": [],
            "stateMutability": "nonpayable"
        },
        {
            "type": "fallback",
            "stateMutability": "payable"
        },
        {
            "type": "receive",
            "stateMutability": "payable"
        },
        {
            "type": "function",
            "name": "MAX_LEADERBOARD",
            "inputs": [],
            "outputs": [
                {
                    "name": "",
                    "type": "uint256",
                    "internalType": "uint256"
                }
            ],
            "stateMutability": "view"
        },
        {
            "type": "function",
            "name": "MIN_GAME_DURATION",
            "inputs": [],
            "outputs": [
                {
                    "name": "",
                    "type": "uint256",
                    "internalType": "uint256"
                }
            ],
            "stateMutability": "view"
        },
        {
            "type": "function",
            "name": "SUBMIT_COOLDOWN",
            "inputs": [],
            "outputs": [
                {
                    "name": "",
                    "type": "uint256",
                    "internalType": "uint256"
                }
            ],
            "stateMutability": "view"
        },
        {
            "type": "function",
            "name": "activeSession",
            "inputs": [
                {
                    "name": "",
                    "type": "address",
                    "internalType": "address"
                }
            ],
            "outputs": [
                {
                    "name": "",
                    "type": "bytes32",
                    "internalType": "bytes32"
                }
            ],
            "stateMutability": "view"
        },
        {
            "type": "function",
            "name": "depositPrize",
            "inputs": [],
            "outputs": [],
            "stateMutability": "payable"
        },
        {
            "type": "function",
            "name": "distributeRewards",
            "inputs": [],
            "outputs": [],
            "stateMutability": "nonpayable"
        },
        {
            "type": "function",
            "name": "emergencyWithdraw",
            "inputs": [],
            "outputs": [],
            "stateMutability": "nonpayable"
        },
        {
            "type": "function",
            "name": "forceReset",
            "inputs": [],
            "outputs": [],
            "stateMutability": "nonpayable"
        },
        {
            "type": "function",
            "name": "getContractBalance",
            "inputs": [],
            "outputs": [
                {
                    "name": "",
                    "type": "uint256",
                    "internalType": "uint256"
                }
            ],
            "stateMutability": "view"
        },
        {
            "type": "function",
            "name": "getLeaderboard",
            "inputs": [],
            "outputs": [
                {
                    "name": "",
                    "type": "tuple[]",
                    "internalType": "struct StackBallGame.PlayerScore[]",
                    "components": [
                        {
                            "name": "player",
                            "type": "address",
                            "internalType": "address"
                        },
                        {
                            "name": "score",
                            "type": "uint256",
                            "internalType": "uint256"
                        },
                        {
                            "name": "rank",
                            "type": "uint256",
                            "internalType": "uint256"
                        },
                        {
                            "name": "submittedAt",
                            "type": "uint256",
                            "internalType": "uint256"
                        }
                    ]
                }
            ],
            "stateMutability": "view"
        },
        {
            "type": "function",
            "name": "getLeaderboardTop3",
            "inputs": [],
            "outputs": [
                {
                    "name": "p1",
                    "type": "address",
                    "internalType": "address"
                },
                {
                    "name": "s1",
                    "type": "uint256",
                    "internalType": "uint256"
                },
                {
                    "name": "p2",
                    "type": "address",
                    "internalType": "address"
                },
                {
                    "name": "s2",
                    "type": "uint256",
                    "internalType": "uint256"
                },
                {
                    "name": "p3",
                    "type": "address",
                    "internalType": "address"
                },
                {
                    "name": "s3",
                    "type": "uint256",
                    "internalType": "uint256"
                }
            ],
            "stateMutability": "view"
        },
        {
            "type": "function",
            "name": "getPlayerStats",
            "inputs": [
                {
                    "name": "player",
                    "type": "address",
                    "internalType": "address"
                }
            ],
            "outputs": [
                {
                    "name": "",
                    "type": "tuple",
                    "internalType": "struct StackBallGame.PlayerStats",
                    "components": [
                        {
                            "name": "totalGames",
                            "type": "uint256",
                            "internalType": "uint256"
                        },
                        {
                            "name": "bestScore",
                            "type": "uint256",
                            "internalType": "uint256"
                        },
                        {
                            "name": "currentPeriodScore",
                            "type": "uint256",
                            "internalType": "uint256"
                        },
                        {
                            "name": "currentRank",
                            "type": "uint256",
                            "internalType": "uint256"
                        },
                        {
                            "name": "hasSubmittedThisPeriod",
                            "type": "bool",
                            "internalType": "bool"
                        }
                    ]
                }
            ],
            "stateMutability": "view"
        },
        {
            "type": "function",
            "name": "getPrizes",
            "inputs": [],
            "outputs": [
                {
                    "name": "",
                    "type": "uint256",
                    "internalType": "uint256"
                },
                {
                    "name": "",
                    "type": "uint256",
                    "internalType": "uint256"
                },
                {
                    "name": "",
                    "type": "uint256",
                    "internalType": "uint256"
                }
            ],
            "stateMutability": "view"
        },
        {
            "type": "function",
            "name": "getTimeUntilReset",
            "inputs": [],
            "outputs": [
                {
                    "name": "",
                    "type": "uint256",
                    "internalType": "uint256"
                }
            ],
            "stateMutability": "view"
        },
        {
            "type": "function",
            "name": "isPeriodExpired",
            "inputs": [],
            "outputs": [
                {
                    "name": "",
                    "type": "bool",
                    "internalType": "bool"
                }
            ],
            "stateMutability": "view"
        },
        {
            "type": "function",
            "name": "lastSubmitTime",
            "inputs": [
                {
                    "name": "",
                    "type": "address",
                    "internalType": "address"
                }
            ],
            "outputs": [
                {
                    "name": "",
                    "type": "uint256",
                    "internalType": "uint256"
                }
            ],
            "stateMutability": "view"
        },
        {
            "type": "function",
            "name": "leaderboard",
            "inputs": [
                {
                    "name": "",
                    "type": "uint256",
                    "internalType": "uint256"
                }
            ],
            "outputs": [
                {
                    "name": "player",
                    "type": "address",
                    "internalType": "address"
                },
                {
                    "name": "score",
                    "type": "uint256",
                    "internalType": "uint256"
                },
                {
                    "name": "rank",
                    "type": "uint256",
                    "internalType": "uint256"
                },
                {
                    "name": "submittedAt",
                    "type": "uint256",
                    "internalType": "uint256"
                }
            ],
            "stateMutability": "view"
        },
        {
            "type": "function",
            "name": "owner",
            "inputs": [],
            "outputs": [
                {
                    "name": "",
                    "type": "address",
                    "internalType": "address"
                }
            ],
            "stateMutability": "view"
        },
        {
            "type": "function",
            "name": "periodDuration",
            "inputs": [],
            "outputs": [
                {
                    "name": "",
                    "type": "uint256",
                    "internalType": "uint256"
                }
            ],
            "stateMutability": "view"
        },
        {
            "type": "function",
            "name": "periodNumber",
            "inputs": [],
            "outputs": [
                {
                    "name": "",
                    "type": "uint256",
                    "internalType": "uint256"
                }
            ],
            "stateMutability": "view"
        },
        {
            "type": "function",
            "name": "periodStart",
            "inputs": [],
            "outputs": [
                {
                    "name": "",
                    "type": "uint256",
                    "internalType": "uint256"
                }
            ],
            "stateMutability": "view"
        },
        {
            "type": "function",
            "name": "playerStats",
            "inputs": [
                {
                    "name": "",
                    "type": "address",
                    "internalType": "address"
                }
            ],
            "outputs": [
                {
                    "name": "totalGames",
                    "type": "uint256",
                    "internalType": "uint256"
                },
                {
                    "name": "bestScore",
                    "type": "uint256",
                    "internalType": "uint256"
                },
                {
                    "name": "currentPeriodScore",
                    "type": "uint256",
                    "internalType": "uint256"
                },
                {
                    "name": "currentRank",
                    "type": "uint256",
                    "internalType": "uint256"
                },
                {
                    "name": "hasSubmittedThisPeriod",
                    "type": "bool",
                    "internalType": "bool"
                }
            ],
            "stateMutability": "view"
        },
        {
            "type": "function",
            "name": "prize1",
            "inputs": [],
            "outputs": [
                {
                    "name": "",
                    "type": "uint256",
                    "internalType": "uint256"
                }
            ],
            "stateMutability": "view"
        },
        {
            "type": "function",
            "name": "prize2",
            "inputs": [],
            "outputs": [
                {
                    "name": "",
                    "type": "uint256",
                    "internalType": "uint256"
                }
            ],
            "stateMutability": "view"
        },
        {
            "type": "function",
            "name": "prize3",
            "inputs": [],
            "outputs": [
                {
                    "name": "",
                    "type": "uint256",
                    "internalType": "uint256"
                }
            ],
            "stateMutability": "view"
        },
        {
            "type": "function",
            "name": "sessions",
            "inputs": [
                {
                    "name": "",
                    "type": "bytes32",
                    "internalType": "bytes32"
                }
            ],
            "outputs": [
                {
                    "name": "player",
                    "type": "address",
                    "internalType": "address"
                },
                {
                    "name": "startTime",
                    "type": "uint256",
                    "internalType": "uint256"
                },
                {
                    "name": "isActive",
                    "type": "bool",
                    "internalType": "bool"
                },
                {
                    "name": "isSubmitted",
                    "type": "bool",
                    "internalType": "bool"
                }
            ],
            "stateMutability": "view"
        },
        {
            "type": "function",
            "name": "setPrizes",
            "inputs": [
                {
                    "name": "_p1",
                    "type": "uint256",
                    "internalType": "uint256"
                },
                {
                    "name": "_p2",
                    "type": "uint256",
                    "internalType": "uint256"
                },
                {
                    "name": "_p3",
                    "type": "uint256",
                    "internalType": "uint256"
                }
            ],
            "outputs": [],
            "stateMutability": "nonpayable"
        },
        {
            "type": "function",
            "name": "startGame",
            "inputs": [],
            "outputs": [
                {
                    "name": "sessionId",
                    "type": "bytes32",
                    "internalType": "bytes32"
                }
            ],
            "stateMutability": "nonpayable"
        },
        {
            "type": "function",
            "name": "submitScore",
            "inputs": [
                {
                    "name": "totalScore",
                    "type": "uint256",
                    "internalType": "uint256"
                },
                {
                    "name": "gameHash",
                    "type": "bytes32",
                    "internalType": "bytes32"
                }
            ],
            "outputs": [],
            "stateMutability": "nonpayable"
        },
        {
            "type": "function",
            "name": "usedHashes",
            "inputs": [
                {
                    "name": "",
                    "type": "bytes32",
                    "internalType": "bytes32"
                }
            ],
            "outputs": [
                {
                    "name": "",
                    "type": "bool",
                    "internalType": "bool"
                }
            ],
            "stateMutability": "view"
        },
        {
            "type": "event",
            "name": "GameStarted",
            "inputs": [
                {
                    "name": "player",
                    "type": "address",
                    "indexed": true,
                    "internalType": "address"
                },
                {
                    "name": "sessionId",
                    "type": "bytes32",
                    "indexed": true,
                    "internalType": "bytes32"
                },
                {
                    "name": "timestamp",
                    "type": "uint256",
                    "indexed": false,
                    "internalType": "uint256"
                }
            ],
            "anonymous": false
        },
        {
            "type": "event",
            "name": "LeaderboardReset",
            "inputs": [
                {
                    "name": "periodNumber",
                    "type": "uint256",
                    "indexed": true,
                    "internalType": "uint256"
                },
                {
                    "name": "timestamp",
                    "type": "uint256",
                    "indexed": false,
                    "internalType": "uint256"
                }
            ],
            "anonymous": false
        },
        {
            "type": "event",
            "name": "PrizeDeposited",
            "inputs": [
                {
                    "name": "from",
                    "type": "address",
                    "indexed": true,
                    "internalType": "address"
                },
                {
                    "name": "amount",
                    "type": "uint256",
                    "indexed": false,
                    "internalType": "uint256"
                },
                {
                    "name": "contractBalance",
                    "type": "uint256",
                    "indexed": false,
                    "internalType": "uint256"
                }
            ],
            "anonymous": false
        },
        {
            "type": "event",
            "name": "RewardsDistributed",
            "inputs": [
                {
                    "name": "winner1",
                    "type": "address",
                    "indexed": true,
                    "internalType": "address"
                },
                {
                    "name": "winner2",
                    "type": "address",
                    "indexed": true,
                    "internalType": "address"
                },
                {
                    "name": "winner3",
                    "type": "address",
                    "indexed": true,
                    "internalType": "address"
                },
                {
                    "name": "amount1",
                    "type": "uint256",
                    "indexed": false,
                    "internalType": "uint256"
                },
                {
                    "name": "amount2",
                    "type": "uint256",
                    "indexed": false,
                    "internalType": "uint256"
                },
                {
                    "name": "amount3",
                    "type": "uint256",
                    "indexed": false,
                    "internalType": "uint256"
                },
                {
                    "name": "periodNumber",
                    "type": "uint256",
                    "indexed": false,
                    "internalType": "uint256"
                }
            ],
            "anonymous": false
        },
        {
            "type": "event",
            "name": "ScoreSubmitted",
            "inputs": [
                {
                    "name": "player",
                    "type": "address",
                    "indexed": true,
                    "internalType": "address"
                },
                {
                    "name": "score",
                    "type": "uint256",
                    "indexed": false,
                    "internalType": "uint256"
                },
                {
                    "name": "rank",
                    "type": "uint256",
                    "indexed": false,
                    "internalType": "uint256"
                },
                {
                    "name": "periodNumber",
                    "type": "uint256",
                    "indexed": false,
                    "internalType": "uint256"
                },
                {
                    "name": "timestamp",
                    "type": "uint256",
                    "indexed": false,
                    "internalType": "uint256"
                }
            ],
            "anonymous": false
        }
    ],
    "bytecode": {
        "object": "0x60806040526203f48060015567d02ab486cedc000060045567b469471f80140000600555678ac7230489e8000060065534801561003a575f80fd5b505f80546001600160a01b03191633179055426002556001600355611f97806100625f395ff3fe6080604052600436106101b8575f3560e01c80637dbd2832116100ea578063bf3683991161008e578063db2e21bc11610060578063db2e21bc146105fa578063def8315a1461060e578063ec000bb51461062d578063eda4e6d61461065d57005b8063bf36839914610513578063c05b55ac1461055c578063cdafbbb614610571578063d65ab5f2146105e657005b80638d39905f116100c75780638d39905f1461046f5780638da5cb5b1461049a578063aef18bf7146104d0578063b470aade146104fe57005b80637dbd2832146103b55780638b680cc3146104375780638b6d4bde1461044b57005b80634fd66eae1161015c5780636f4a2cd01161012e5780636f4a2cd01461035b5780636f9fb98a1461036f5780637675a4191461038157806379ec0eaf1461039657005b80634fd66eae146102af578063513a39b714610311578063618abf12146103255780636d763a6e1461033a57005b8063115e33ae11610195578063115e33ae1461022857806327e393131461023c578063409f6c63146102935780634e083278146102a757005b806302802a64146101c157806308523968146101e85780630df99ff11461021357005b366101bf57005b005b3480156101cc575f80fd5b506101d5603281565b6040519081526020015b60405180910390f35b3480156101f3575f80fd5b506101d5610202366004611d6e565b600a6020525f908152604090205481565b34801561021e575f80fd5b506101d560035481565b348015610233575f80fd5b506101d5600a81565b348015610247575f80fd5b50610250610672565b604080516001600160a01b0397881681526020810196909652938616938501939093526060840191909152909216608082015260a081019190915260c0016101df565b34801561029e575f80fd5b506101d5601e81565b6101bf6107aa565b3480156102ba575f80fd5b506102ce6102c9366004611d6e565b610868565b6040516101df91905f60a0820190508251825260208301516020830152604083015160408301526060830151606083015260808301511515608083015292915050565b34801561031c575f80fd5b506101d56108f3565b348015610330575f80fd5b506101d560065481565b348015610345575f80fd5b5061034e610925565b6040516101df9190611d9b565b348015610366575f80fd5b506101bf6109ad565b34801561037a575f80fd5b50476101d5565b34801561038c575f80fd5b506101d560045481565b3480156103a1575f80fd5b506101bf6103b0366004611e07565b610dd3565b3480156103c0575f80fd5b506104056103cf366004611e30565b60096020525f90815260409020805460018201546002909201546001600160a01b03909116919060ff8082169161010090041684565b604080516001600160a01b039095168552602085019390935290151591830191909152151560608201526080016101df565b348015610442575f80fd5b506101bf610e0a565b348015610456575f80fd5b5061045f610e3d565b60405190151581526020016101df565b34801561047a575f80fd5b506101d5610489366004611d6e565b600c6020525f908152604090205481565b3480156104a5575f80fd5b505f546104b8906001600160a01b031681565b6040516001600160a01b0390911681526020016101df565b3480156104db575f80fd5b5061045f6104ea366004611e30565b600b6020525f908152604090205460ff1681565b348015610509575f80fd5b506101d560015481565b34801561051e575f80fd5b5061053261052d366004611e30565b610e4b565b604080516001600160a01b03909516855260208501939093529183015260608201526080016101df565b348015610567575f80fd5b506101d560055481565b34801561057c575f80fd5b506105bc61058b366004611d6e565b60086020525f9081526040902080546001820154600283015460038401546004909401549293919290919060ff1685565b6040805195865260208601949094529284019190915260608301521515608082015260a0016101df565b3480156105f1575f80fd5b506101d5610e8d565b348015610605575f80fd5b506101bf611019565b348015610619575f80fd5b506101bf610628366004611e47565b6110e5565b348015610638575f80fd5b50600454600554600654604080519384526020840192909252908201526060016101df565b348015610668575f80fd5b506101d560025481565b5f805f805f805f6007805490509050600181106106dd5760075f8154811061069c5761069c611e67565b5f9182526020822060049091020154600780546001600160a01b03909216995091906106ca576106ca611e67565b905f5260205f2090600402016001015495505b6002811061073f5760076001815481106106f9576106f9611e67565b5f918252602090912060049091020154600780546001600160a01b03909216965090600190811061072c5761072c611e67565b905f5260205f2090600402016001015493505b600381106107a157600760028154811061075b5761075b611e67565b5f918252602090912060049091020154600780546001600160a01b03909216945090600290811061078e5761078e611e67565b905f5260205f2090600402016001015491505b50909192939495565b5f546001600160a01b031633146107dc5760405162461bcd60e51b81526004016107d390611e7b565b60405180910390fd5b5f341161082b5760405162461bcd60e51b815260206004820152601960248201527f537461636b42616c6c3a206d7573742073656e642043454c4f0000000000000060448201526064016107d3565b6040805134815247602082015233917f93e71a765d9dbd78bb81630ff384cea4889a4dd193703dd81f51584e20e7150891015b60405180910390a2565b6108976040518060a001604052805f81526020015f81526020015f81526020015f81526020015f151581525090565b506001600160a01b03165f90815260086020908152604091829020825160a081018452815481526001820154928101929092526002810154928201929092526003820154606082015260049091015460ff161515608082015290565b5f806001546002546109059190611ebd565b9050804210610915575f91505090565b61091f4282611ed0565b91505090565b60606007805480602002602001604051908101604052809291908181526020015f905b828210156109a4575f848152602090819020604080516080810182526004860290920180546001600160a01b03168352600180820154848601526002820154928401929092526003015460608301529083529092019101610948565b50505050905090565b5f546001600160a01b031633146109d65760405162461bcd60e51b81526004016107d390611e7b565b6109de611555565b610a345760405162461bcd60e51b815260206004820152602160248201527f537461636b42616c6c3a20706572696f64206e6f7420796574206578706972656044820152601960fa1b60648201526084016107d3565b600654600554600454610a479190611ebd565b610a519190611ebd565b471015610aa05760405162461bcd60e51b815260206004820152601f60248201527f537461636b42616c6c3a20696e73756666696369656e742062616c616e63650060448201526064016107d3565b5f805f805f805f600780549050905060018110610b8d5760075f81548110610aca57610aca611e67565b5f918252602082206004918202015490546040516001600160a01b0390921699509550889086908381818185875af1925050503d805f8114610b27576040519150601f19603f3d011682016040523d82523d5f602084013e610b2c565b606091505b5050905080610b8b5760405162461bcd60e51b815260206004820152602560248201527f537461636b42616c6c3a207472616e7366657220746f2077696e6e6572312066604482015264185a5b195960da1b60648201526084016107d3565b505b60028110610c6e576007600181548110610ba957610ba9611e67565b5f9182526020822060049190910201546005546040516001600160a01b0390921698509450879085908381818185875af1925050503d805f8114610c08576040519150601f19603f3d011682016040523d82523d5f602084013e610c0d565b606091505b5050905080610c6c5760405162461bcd60e51b815260206004820152602560248201527f537461636b42616c6c3a207472616e7366657220746f2077696e6e6572322066604482015264185a5b195960da1b60648201526084016107d3565b505b60038110610d4f576007600281548110610c8a57610c8a611e67565b5f9182526020822060049190910201546006546040516001600160a01b0390921697509350869084908381818185875af1925050503d805f8114610ce9576040519150601f19603f3d011682016040523d82523d5f602084013e610cee565b606091505b5050905080610d4d5760405162461bcd60e51b815260206004820152602560248201527f537461636b42616c6c3a207472616e7366657220746f2077696e6e6572332066604482015264185a5b195960da1b60648201526084016107d3565b505b846001600160a01b0316866001600160a01b0316886001600160a01b03167fe1e53d9ade3c853d9b3ec1f596be05ab7dadad76fc63c50dd2a1caeebac93365878787600354604051610dba949392919093845260208401929092526040830152606082015260800190565b60405180910390a4610dca61156e565b50505050505050565b5f546001600160a01b03163314610dfc5760405162461bcd60e51b81526004016107d390611e7b565b600492909255600555600655565b5f546001600160a01b03163314610e335760405162461bcd60e51b81526004016107d390611e7b565b610e3b61156e565b565b5f610e46611555565b905090565b60078181548110610e5a575f80fd5b5f91825260209091206004909102018054600182015460028301546003909301546001600160a01b039092169350919084565b5f610e96611555565b15610eb35760405162461bcd60e51b81526004016107d390611ee3565b50335f8181526008602090815260408083205481516bffffffffffffffffffffffff19606087901b1681850152426034820152446054820152607480820192909252825180820390920182526094018252805190830120938352600a9091529020548015610f34575f818152600960205260409020600201805460ff191690555b604080516080810182523380825242602080840191825260018486018181525f606087018181528a825260098552888220975188546001600160a01b0319166001600160a01b039091161788559451928701929092555160029095018054935161ffff1990941695151561ff001916959095176101009315159390930292909217909355908152600a82528281208590556008909152908120805491610fd983611f34565b9091555050604051428152829033907f859d3597c1e4f44ea32d4e3690849b94fd0a0a07a15da3f5663ecf3c4cd5b0f09060200160405180910390a35090565b5f546001600160a01b031633146110425760405162461bcd60e51b81526004016107d390611e7b565b5f80546040516001600160a01b039091169047908381818185875af1925050503d805f811461108c576040519150601f19603f3d011682016040523d82523d5f602084013e611091565b606091505b50509050806110e25760405162461bcd60e51b815260206004820152601a60248201527f537461636b42616c6c3a207769746864726177206661696c656400000000000060448201526064016107d3565b50565b6110ed611555565b1561110a5760405162461bcd60e51b81526004016107d390611ee3565b5f818152600b602052604090205460ff16156111685760405162461bcd60e51b815260206004820152601c60248201527f537461636b42616c6c3a206861736820616c726561647920757365640000000060448201526064016107d3565b335f908152600a6020526040902054806111c45760405162461bcd60e51b815260206004820152601c60248201527f537461636b42616c6c3a206e6f206163746976652073657373696f6e0000000060448201526064016107d3565b5f81815260096020526040902080546001600160a01b0316331461122a5760405162461bcd60e51b815260206004820152601b60248201527f537461636b42616c6c3a206e6f7420796f75722073657373696f6e000000000060448201526064016107d3565b600281015460ff1661127e5760405162461bcd60e51b815260206004820152601d60248201527f537461636b42616c6c3a2073657373696f6e206e6f742061637469766500000060448201526064016107d3565b6002810154610100900460ff16156112d85760405162461bcd60e51b815260206004820152601c60248201527f537461636b42616c6c3a20616c7265616479207375626d69747465640000000060448201526064016107d3565b600a81600101546112e99190611ebd565b4210156113385760405162461bcd60e51b815260206004820152601960248201527f537461636b42616c6c3a2067616d6520746f6f2073686f72740000000000000060448201526064016107d3565b335f908152600c6020526040902054158061136d5750335f908152600c602052604090205461136990601e90611ebd565b4210155b6113b95760405162461bcd60e51b815260206004820152601a60248201527f537461636b42616c6c3a207375626d697420746f6f20736f6f6e00000000000060448201526064016107d3565b5f84116114125760405162461bcd60e51b815260206004820152602160248201527f537461636b42616c6c3a2073636f7265206d75737420626520706f73697469766044820152606560f81b60648201526084016107d3565b5f838152600b60209081526040808320805460ff1916600190811790915560028501805461ffff1916610100179055338452600a8352818420849055600c835281842042905560089092529091209081015485111561147357600181018590555b806002015485111561149a576002810185905560048101805460ff191660011790556114ed565b600354604080518781525f60208201529081019190915242606082015233907f04f4c0f5a4a2f0a08f6e3b4fd6a5abaa7af15961534922311add59aeef2e1d929060800160405180910390a25050505050565b5f6114f833876115c7565b6003838101829055546040805189815260208101849052808201929092524260608301525191925033917f04f4c0f5a4a2f0a08f6e3b4fd6a5abaa7af15961534922311add59aeef2e1d929181900360800190a2505050505b5050565b5f6001546002546115669190611ebd565b421015905090565b61157960075f611d1e565b60038054905f61158883611f34565b9091555050426002819055600354604051918252907f5bd512e9196ccf4c945064ad869f924ffc78afd860d0896106b20a3345b486229060200161085e565b6007545f90815b8181101561171b57846001600160a01b0316600782815481106115f3576115f3611e67565b5f9182526020909120600490910201546001600160a01b03160361170957836007828154811061162557611625611e67565b905f5260205f20906004020160010181905550426007828154811061164c5761164c611e67565b905f5260205f209060040201600301819055506116688161193f565b5f5b60075481101561170757856001600160a01b03166007828154811061169157611691611e67565b5f9182526020909120600490910201546001600160a01b0316036116f5576116ba816001611ebd565b600782815481106116cd576116cd611e67565b5f9182526020909120600260049092020101556116eb816001611ebd565b9350505050611939565b806116ff81611f34565b91505061166a565b505b8061171381611f34565b9150506115ce565b50603281108061176057505f811180156117605750600761173d600183611ed0565b8154811061174d5761174d611e67565b905f5260205f2090600402016001015483115b15611937576032810361180757604080516080810182526001600160a01b03861681526020810185905290810182905242606082015260076117a3600184611ed0565b815481106117b3576117b3611e67565b5f91825260209182902083516004929092020180546001600160a01b0319166001600160a01b0390921691909117815590820151600182015560408201516002820155606090910151600390910155611895565b60076040518060800160405280866001600160a01b031681526020018581526020018360016118369190611ebd565b8152426020918201528254600180820185555f94855293829020835160049092020180546001600160a01b0319166001600160a01b03909216919091178155908201519281019290925560408101516002830155606001516003909101555b61189d611b0e565b5f5b600754811015611935576118b4816001611ebd565b600782815481106118c7576118c7611e67565b905f5260205f20906004020160020181905550846001600160a01b0316600782815481106118f7576118f7611e67565b5f9182526020909120600490910201546001600160a01b03160361192357611920816001611ebd565b92505b8061192d81611f34565b91505061189f565b505b505b92915050565b5f8111801561199b57506007611956600183611ed0565b8154811061196657611966611e67565b905f5260205f209060040201600101546007828154811061198957611989611e67565b905f5260205f20906004020160010154115b156110e2575f600782815481106119b4576119b4611e67565b5f91825260209182902060408051608081018252600490930290910180546001600160a01b03168352600180820154948401949094526002810154918301919091526003015460608201529150600790611a0e9084611ed0565b81548110611a1e57611a1e611e67565b905f5260205f20906004020160078381548110611a3d57611a3d611e67565b5f9182526020909120825460049092020180546001600160a01b0319166001600160a01b03909216919091178155600180830154818301556002808401549083015560039283015492909101919091558190600790611a9c9085611ed0565b81548110611aac57611aac611e67565b5f91825260209182902083516004929092020180546001600160a01b0319166001600160a01b039092169190911781559082015160018201556040820151600282015560609091015160039091015581611b0581611f4c565b9250505061193f565b6007545f5b611b1e600183611ed0565b811015611551575f5b6001611b338385611ed0565b611b3d9190611ed0565b811015611d0b576007611b51826001611ebd565b81548110611b6157611b61611e67565b905f5260205f2090600402016001015460078281548110611b8457611b84611e67565b905f5260205f209060040201600101541015611cf9575f60078281548110611bae57611bae611e67565b5f91825260209182902060408051608081018252600490930290910180546001600160a01b03168352600180820154948401949094526002810154918301919091526003015460608201529150600790611c09908490611ebd565b81548110611c1957611c19611e67565b905f5260205f20906004020160078381548110611c3857611c38611e67565b5f9182526020909120825460049092020180546001600160a01b0319166001600160a01b03909216919091178155600180830154818301556002808401549083015560039283015492909101919091558190600790611c98908590611ebd565b81548110611ca857611ca8611e67565b5f91825260209182902083516004929092020180546001600160a01b0319166001600160a01b0390921691909117815590820151600182015560408201516002820155606090910151600390910155505b80611d0381611f34565b915050611b27565b5080611d1681611f34565b915050611b13565b5080545f8255600402905f5260205f20908101906110e291905b80821115611d6a5780546001600160a01b03191681555f60018201819055600282018190556003820155600401611d38565b5090565b5f60208284031215611d7e575f80fd5b81356001600160a01b0381168114611d94575f80fd5b9392505050565b602080825282518282018190525f919060409081850190868401855b82811015611dfa57815180516001600160a01b03168552868101518786015285810151868601526060908101519085015260809093019290850190600101611db7565b5091979650505050505050565b5f805f60608486031215611e19575f80fd5b505081359360208301359350604090920135919050565b5f60208284031215611e40575f80fd5b5035919050565b5f8060408385031215611e58575f80fd5b50508035926020909101359150565b634e487b7160e01b5f52603260045260245ffd5b60208082526014908201527329ba30b1b5a130b6361d103737ba1037bbb732b960611b604082015260600190565b634e487b7160e01b5f52601160045260245ffd5b8082018082111561193957611939611ea9565b8181038181111561193957611939611ea9565b60208082526031908201527f537461636b42616c6c3a20706572696f6420657870697265642c2063616c6c20604082015270646973747269627574655265776172647360781b606082015260800190565b5f60018201611f4557611f45611ea9565b5060010190565b5f81611f5a57611f5a611ea9565b505f19019056fea2646970667358221220fdc5d08ba8acaae4914311e031c00af165efba41e7e15ec7091fe591e669a7bc64736f6c63430008140033",
        "linkReferences": {}
    },
    "methodIdentifiers": {
        "MAX_LEADERBOARD()": "02802a64",
        "MIN_GAME_DURATION()": "115e33ae",
        "SUBMIT_COOLDOWN()": "409f6c63",
        "activeSession(address)": "08523968",
        "depositPrize()": "4e083278",
        "distributeRewards()": "6f4a2cd0",
        "emergencyWithdraw()": "db2e21bc",
        "forceReset()": "8b680cc3",
        "getContractBalance()": "6f9fb98a",
        "getLeaderboard()": "6d763a6e",
        "getLeaderboardTop3()": "27e39313",
        "getPlayerStats(address)": "4fd66eae",
        "getPrizes()": "ec000bb5",
        "getTimeUntilReset()": "513a39b7",
        "isPeriodExpired()": "8b6d4bde",
        "lastSubmitTime(address)": "8d39905f",
        "leaderboard(uint256)": "bf368399",
        "owner()": "8da5cb5b",
        "periodDuration()": "b470aade",
        "periodNumber()": "0df99ff1",
        "periodStart()": "eda4e6d6",
        "playerStats(address)": "cdafbbb6",
        "prize1()": "7675a419",
        "prize2()": "c05b55ac",
        "prize3()": "618abf12",
        "sessions(bytes32)": "7dbd2832",
        "setPrizes(uint256,uint256,uint256)": "79ec0eaf",
        "startGame()": "d65ab5f2",
        "submitScore(uint256,bytes32)": "def8315a",
        "usedHashes(bytes32)": "aef18bf7"
    },
    "id": 19
}